:020000040800F2
:10000000600500209D0100089B21000833180008AE
:1000100099210008C5020008D5250008000000004D
:10002000000000000000000000000000B1220008F5
:10003000E5040008000000009D210008B32200082C
:10004000B7010008B7010008B7010008B7010008B0
:10005000B7010008B7010008B7010008B7010008A0
:10006000B7010008B7010008B7010008B701000890
:10007000B7010008B7010008B7010008B701000880
:10008000B7010008B7010008B7010008B701000870
:10009000B7010008B7010008B7010008B701000860
:1000A000B7010008B7010008B7010008B701000850
:1000B000B7010008B7010008B7010008B701000840
:1000C000B7010008B7010008B7010008B701000830
:1000D000B7010008B7010008B7010008B701000820
:1000E000B7010008B7010008B7010008B701000810
:1000F000B7010008B7010008B7010008B701000800
:10010000B7010008B7010008B7010008B7010008EF
:10011000B7010008B7010008B7010008B7010008DF
:10012000B7010008B7010008B7010008B7010008CF
:10013000B7010008B7010008B7010008B7010008BF
:10014000B7010008B7010008B7010008B7010008AF
:10015000B7010008B7010008B7010008B70100089F
:10016000B7010008B7010008B7010008B70100088F
:10017000B7010008B7010008B7010008000000003F
:10018000B7010008B7010008DFF80CD000F088F8CC
:1001900000480047512B00086005002006488047B2
:1001A00006480047FEE7FEE7FEE7FEE7FEE7FEE75C
:1001B000FEE7FEE7FEE7FEE74923000889010008A5
:1001C0002DE9F05F0546002092469B46884606468C
:1001D000814640241BE0284641464746224600F01F
:1001E0004FF853465A46C01A914110D3114618464B
:1001F000224600F036F82D1A67EB01084F462246DA
:100200000120002100F02DF817EB00094E41201EBF
:10021000A4F10104DFDC484631462A464346BDE8E6
:10022000F09FD2B201E000F8012B491EFBD27047CB
:100230000022F6E710B513460A4604461946FFF7B2
:10024000F0FF204610BD10B5002200E0521C835C78
:100250008C5CA34201D1002BF8D1D8B2E1B2401A94
:1002600010BD202A04DB203A00FA02F1002070477A
:100270009140C2F1200320FA03F3194390407047E4
:10028000202A04DB203A21FA02F00021704721FAEB
:1002900002F3D040C2F12002914008431946704752
:1002A000064C074D06E0E06840F0010394E80700C3
:1002B00098471034AC42F6D3FFF76AFFB85E0008E7
:1002C000D85E0008FEE7000010B50E4C00220221A7
:1002D000204600F084FC00220421204600F07FFC30
:1002E0000A2002F0DBFB01220221204600F077FC0D
:1002F0000A2002F0D3FB20460022BDE81040022174
:1003000000F06DBC0000024010B50E4C002202212E
:10031000204600F064FC01220421204600F05FFC2E
:100320000A2002F0BBFB01220221204600F057FC0C
:100330000A2002F0B3FB20460022BDE81040022153
:1003400000F04DBC000002402DE9F041194E074677
:10035000002401220421304600F041FC0025002247
:100360000221304600F03BFC0A2002F097FB0122FC
:100370000221304600F033FC0A2002F08FFB6006B9
:10038000040E0421304600F025FC012801D1641C34
:10039000E4B20A2002F082FB6D1CEDB2082DDED320
:1003A00027B1FFF791FF2046BDE8F081FFF7ACFFD2
:1003B000F9E700000000024070B5134E0546002228
:1003C0000221304600F00BFC0024EA0904213046EB
:1003D00000F005FC6806050E0A2002F05FFB012212
:1003E0000221304600F0FBFB0A2002F057FB0022FE
:1003F0000221304600F0F3FB0A2002F04FFB641CA0
:10040000E4B2082CE1D370BD0000024010B50E4CE0
:1004100001220421204600F0E2FB012202212046B5
:1004200000F0DDFB0A2002F039FB00220421204607
:1004300000F0D5FB0A2002F031FB20460022BDE887
:100440001040022100F0CBBB0000024010B50E4C62
:1004500000220221204600F0C2FB00220421204697
:1004600000F0BDFB0A2002F019FB01220221204608
:1004700000F0B5FB0A2002F011FB20460122BDE886
:100480001040042100F0ABBB0000024070B5144DD9
:10049000002401220421284600F0A1FB0A2002F0DA
:1004A000FDFA01220221284600F099FB0A2002F001
:1004B000F5FA07E0641CE4B2FA2C03D9FFF7C6FF93
:1004C000012070BD0421284600F084FB0128F1D0F2
:1004D00000220221284600F082FB002070BD0000AF
:1004E0000000024070472DE9FF4F8046002514466A
:1004F000032083B00F46A0EB440651E0381B019067
:1005000081B208EB050A1FFA8AF0069A01F040FA58
:10051000781B81B208EB040900901FFA89F0069A53
:1005200001F036FA07EB050B1FFA8BF11FFA89F081
:10053000069A01F02DFA07EB04091FFA89F11FFA58
:100540008AF0069A01F024FAA8EB050A1FFA89F14D
:100550001FFA8AF0069A01F01BFAA8EB04091FFAA9
:100560008BF11FFA89F0069A01F012FA0198069AA7
:1005700081B21FFA8AF001F00BFA0098069A81B254
:100580001FFA89F001F004FA6D1C002E03DA06EB65
:100590008506B61D04E0281B06EB8006641E0A369D
:1005A000A542ABDD07B0BDE8F08F72B6FEE70000F4
:1005B00070B588B0142103A8FFF73AFE4348002421
:1005C000016841F0040101600068022500F00400A8
:1005D00000900120CDE903503D4E03A93046CDE9FE
:1005E000054500F0FFF93BA001F0F6FF01220221D2
:1005F000304600F0F4FA01221146304600F0EFFADE
:1006000000220121304600F0EAFA0A2000F0D8F971
:1006100001221146304600F0E2FA0A2000F0D0F93B
:1006200003A93046CDE9044500F0DCF92FA001F024
:10063000D3FF642000F0C4F9042201A948F240105D
:1006400000F0A2F88DF8084001A92EA001F0C4FF27
:100650009DF8070000909DF806309DF805209DF854
:1006600004102BA001F0B8FF32A101A8FFF7EBFDA9
:1006700010B1012008B070BD8DF8045048F240055B
:10068000012201A9284600F071F92BA001F0A4FF76
:10069000012201A9E81D00F077F82CA001F09CFFD1
:1006A0009DF80410602902D22DA001F095FF0A20C8
:1006B00000F086F98DF80440012201A9284600F0D7
:1006C00055F92CA001F088FF0020D3E73038024014
:1006D0000008024047545F494E54206F75745F70A4
:1006E0007020696E697420210D0A000047545F492B
:1006F0004E5420696E70757420696E697420210DE6
:100700000A0000004354502049443A25730D0A0062
:100710004354502049442042797465733A2025306F
:10072000325820253032582025303258202530329A
:10073000580D0A003931310047543931315F575271
:100740005F52656731210D0A0000000047543931BE
:10075000315F44525F52656731210D0A000000008D
:1007600044656661756C74205665723A25640D0A9D
:100770000000000047543931315F57525F526567BE
:1007800032210D0A000000002DE9F04115460E4609
:100790000446FFF73BFE2820FFF70EFEFFF776FE2C
:1007A000200AFFF709FEFFF771FEE0B2FFF704FE33
:1007B000FFF76CFEFFF72AFE2920FFF7FDFDFFF78C
:1007C00065FE00246F1E09E0BC4201D0012000E05C
:1007D0000020FFF7B9FD3055641CE4B2AC42F3D3FE
:1007E000BDE8F041FFF732BE2DE9F14F574E00242E
:1007F0004FF00A0A307884B0401CC0B2B0FBFAF265
:100800000AFB1201DFF84881A146307009B10A28BD
:100810007BD2012204A948F24E10FFF7B5FF9DF8E4
:1008200010004FF0000701075FD000F00F0106290C
:100830005BD2FF2088408DF80800C04340F0C00024
:10084000DFF810B1454688F81C004FF00109297FF8
:1008500009FA04F0014229D03F48042201A930F8E6
:100860001400FFF791FF9BF8061041B39DF80410A8
:100870009DF8052001EB022205EB44014A829DF818
:1008800006209DF80730BBF8000002EB0322801A17
:10089000A1F808009DF8070000909DF806309DF82B
:1008A00005209DF804102DA001F096FE641CE4B212
:1008B000052CCCD328894FF0010988B114E09DF8AC
:1008C00004009DF8051000EB012105EB44000181B7
:1008D0009DF806109DF8072001EB02214182D9E71F
:1008E000688A08B98DF8107037709DF810000106FD
:1008F0000BD500F00F00062807D28DF808700122F2
:1009000002A948F24E1000F031F89DF8100000F0F6
:100910008F00802810D198F81C00010602D520F025
:10092000800007E04FF6FF71A8F80810A8F8121031
:1009300000F0E00088F81C003078F02801D986F833
:1009400000A005B04846BDE8F08F0000060000207A
:100950000C00002070000020945E00082564202513
:10096000642025642025640D0A0000002DE9F04173
:1009700016460F4604460025FFF748FD2820FFF7DE
:100980001BFDFFF783FD200AFFF716FDFFF77EFD35
:10099000E0B2FFF711FDFFF779FD002408E0385DB4
:1009A000FFF70AFDFFF772FD050003D1641CE4B2F6
:1009B000B442F4D3FFF74AFD2846BDE8F0810000B9
:1009C00070B5044600F010F90546601C02D00448DA
:1009D0000078044400F008F9401BA042FAD370BD2F
:1009E0005C0000202DE9F84FDFF8BCA100220125B2
:1009F0000AF1040B03264FF00F090BF1040E00BFA0
:100A00000B6805FA02F42340A34270D10F7907F076
:100A10000307012F01D0022F16D187684FEA420841
:100A200006FA08FC27EA0C07D1F80CC00CFA08FCFF
:100A30004CEA070CC0F808C04768A7430C79C4F318
:100A4000001494403C4344600C79E443A4070AD06A
:100A5000C4684FEA420C06FA0CF7BC438F6807FAE9
:100A60000CF72743C7600C7904F00304022C12D161
:100A7000D40800EB840CDCF820405707FF0E09FA7D
:100A800007F824EA0804D1F8108008FA07F848EAC1
:100A90000408CCF8208004684FEA420C06FA0CF7F0
:100AA000BC430F7907F0030707FA0CF727430760E9
:100AB0004C6814F4403F70D03C4C276847F48047A2
:100AC0002760246822F0030704F480440094384C23
:100AD00007EB040CDCF8084897074FEA177809FA87
:100AE00008F7BC43334FB84202D1002724E054E05A
:100AF000314FB84201D101271EE0304FB84201D139
:100B0000022719E02E4FB84201D1032714E02D4FE0
:100B1000B84201D104270FE02B4FB84201D105277D
:100B20000AE02A4FB84201D1062705E0284FB84213
:100B300001D1072700E0082707FA08F72743CCF878
:100B40000878DAF800405746D1F804C09C435FEAC1
:100B5000CC3C00D51C433C60DBF800405F46D1F83C
:100B600004C09C435FEA8C3C00D51C433C60DEF82B
:100B700000407746D1F804C09C435FEACC2C00D5F6
:100B80001C433C60084F0C373C68D1F804C09C43C0
:100B90005FEA8C2C00D51C433C60521C102AFFF4E9
:100BA0002FAFBDE8F88F0000003C01404438024000
:100BB00000300140000002400004024000080240F2
:100BC000000C0240001002400014024000180240D5
:100BD000001C02400069084000D0012070470AB1A3
:100BE000816170470904FBE7014880687047000095
:100BF0005C000020024881680278114481607047DF
:100C00005C0000200B4810B5016841F400710160E0
:100C1000016841F480610160016841F48071016004
:100C2000032000F061F80F2000F006F800F024F82F
:100C3000002010BD003C024070B50D4D04464FF43D
:100C40007A712878B1FBF0F00A490968B1FBF0F03D
:100C500000F041FC48B9102C07D200222146501E5A
:100C600000F022F800206C6070BD012070BD000013
:100C70005C000020680000200A4808B5016841F4C3
:100C800080410160006800F4804000900548001F2A
:100C9000016841F080510160006800F080500090D0
:100CA00008BD000044380240F0B40E4B1B680C46EF
:100CB000C3F30223C3F10705042D00D90425191D30
:100CC000072901D2002300E0DB1E012606FA05F108
:100CD000491E214099409E40761E16403143F0BC8B
:100CE00001F08ABC0CED00E0064900F0070208683C
:100CF0004FF6FF03184040EA0220034A1043086001
:100D0000704700000CED00E00000FA052DE9F04707
:100D10000E46050065D0DFF81481D8F80000F7B260
:100D200000F00700B04207D288F80070D8F8000041
:100D300000F00700B04254D128683D4C810712D51D
:100D4000400703D5206840F4E05020602878000771
:100D500003D5206840F4604020602068A96820F036
:100D6000F000084320602878C0072DD0304968681B
:100D70000839012812D0022813D0032811D009689D
:100D8000890700292DDA216821F003010143216040
:100D9000FFF72AFF814641F2883A0EE0096889038D
:100DA000EFE709688901ECE7FFF71EFFA0EB0901F7
:100DB000514502D90320BDE8F0872068696800F03A
:100DC0000C00B0EB810FEFD1D8F80010404601F0D5
:100DD0000701B14207D90770006800F00700B04270
:100DE00001D00120E7E72878400705D52068E968A9
:100DF00020F4E050084320602878000706D52068DA
:100E0000296920F4604040EAC100206000F038F811
:100E10002168084AC1F30311515CC84006490860C3
:100E200006480068FFF708FF0020C4E7003C0240C6
:100E3000083802409E5E0008680000206000002024
:100E40000448054900680968044AC1F38221515CDD
:100E5000C84070476800002008380240AE5E0008B5
:100E60000448054900680968044AC1F34231515CED
:100E7000C84070476800002008380240AE5E000895
:100E8000154810B5006810F00C02144813D041103A
:100E9000042A0FD0082A0ED10F4C241F2268236881
:100EA00002F03F025B0207D52068C0F38810A0FB68
:100EB000010106E0084610BD2168C1F38811A1FBBD
:100EC00000010023FFF77CF92168C1F30141491CAF
:100ED0004900B0FBF1F010BD083802400024F400D6
:100EE0002DE9F84F04006ED02078DFF84C93C0074E
:100EF000A9F104054AD009F104000168C1F3810198
:100F0000012908D00068C0F3810002280AD1D9F86D
:100F10000000400206D52868800337D560680028A5
:100F2000E1D033E06068B0F5803F10D0B0F5A02F7D
:100F3000286810D020F480302860286820F48020B1
:100F400028606068A8B1FFF74FFE06460DE02868EC
:100F500040F48030F4E740F480202860F7E700BFD9
:100F6000FFF742FE801B642873D828688003F7D5FA
:100F70000CE0FFF739FE064605E000BFFFF734FE40
:100F8000801B6428F0D828688003F7D42078DFF825
:100F9000AC8280074FF0000A3ED5A748001D0168CB
:100FA00011F00C0F08D00068C0F3810002280BD1AB
:100FB000D9F80000400207D42868800716D5E068F9
:100FC000012800D112E033E1E068B8B10120C8F88F
:100FD0000000FFF709FE064605E000BFFFF704FE2C
:100FE000801B0228C0D828688007F7D528682169A7
:100FF00020F0F80040EAC10028600DE0C8F800A029
:10100000FFF7F2FD064604E0FFF7EEFD801B022825
:101010001FD828688007F7D42078000722D5864F8C
:1010200087486169703771B101210160FFF7DCFD0C
:10103000064604E0FFF7D8FD801B022809D838686F
:101040008007F7D50EE0C0F800A0FFF7CDFD0646FB
:1010500005E082E0FFF7C8FD801B02287DD83868D4
:101060008007F7D42078400768D5DFF8CCB1002797
:101070000BF13C0BDBF80000C0000BD4DBF80010D8
:1010800041F08051CBF80010DBF80000012700F0A0
:10109000805000906B4E3068C00510D4306840F42A
:1010A00080703060FFF7A0FD009005E0FFF79CFD29
:1010B0000099401A022850D83068C005F6D55E4E17
:1010C000A0686C3601280FD00528306810D020F0B9
:1010D00001003060306820F004003060A068B8B1D2
:1010E000FFF782FD00900FE0306840F00100F4E768
:1010F00040F004003060F7E7FFF776FD0099411AF1
:1011000041F28830814266D830688007F4D50EE01D
:10111000FFF76AFD009007E0FFF766FD0099411AAE
:1011200041F28830814256D830688007F4D42FB11C
:10113000DBF8001021F08051CBF80010A069C8B393
:101140003D49091D0968C1F3810102294AD00228DD
:10115000504607D0C8F8600000E03CE0FFF744FDCF
:1011600004463BE04746C8F86000FFF73DFD0646F1
:1011700005E000BFFFF738FD801B02282BD8286848
:101180008001F7D4D4E907010843A16A2E4A49082F
:1011900002EB0141626A41EA8211084394F82C1083
:1011A00040EA0161C9F8001001203866FFF71CFD14
:1011B000044606E03EE000BFFFF716FD001B0228D4
:1011C00009D828688001F7D534E000BFFFF70CFD8F
:1011D000001B022802D90320BDE8F88F286880018F
:1011E000F4D427E00128F7D0D9F80000E26900F430
:1011F000800191421CD1226A00F03F01914217D137
:1012000047F6C071626A0140B1EB821F10D1A26A39
:101210004FF0FF3300F4403103EB5202B1EB024FC9
:1012200006D194F82C1000F07060B0EB016F01D083
:101230000120D1E70020CFE70438024000004742F8
:10124000800E4742007000400000FFFF70B50400B0
:1012500009D0606A002540B125616561A56294F8F6
:10126000510040B10CE0012070BD6068B0F5827F94
:10127000F4D0E561F2E784F85050204600F044F8DD
:10128000022084F851002068016821F040010160CB
:10129000A088218900F4827001F404410843A189E7
:1012A00001F400610843217C01F002010843217D23
:1012B00001F001010843218B01F400710843217FF3
:1012C00001F03801084394F8201001F08001084330
:1012D000218D01F40051084321680860A0690421B0
:1012E00001EA104094F8241001F01001084321682D
:1012F00048602068C16921F40061C1616565012011
:1013000084F85100002070BD10B586B00446142149
:101310006846FEF78DFF13492068884220D11248A5
:101320000021026842F480520260006800F480509C
:1013300005900D481438026842F00102026000680E
:1013400000F001000590E02000900220CDE90101AD
:10135000032003900520049069460448FFF742FBF0
:1013600006B010BD00300140443802400000024089
:101370002DE9F84F044690F8500000271D46164608
:10138000894601280DD04FF0010B84F850B0FFF7CB
:101390002BFC804694F85100BA46012804D002275D
:1013A00093E00220BDE8F88FB9F1000F73D0002E52
:1013B00071D0032084F85100C4F854A0C4F83090D0
:1013C000A686E686C4F838A0A4F83CA0A4F83EA0FF
:1013D000C4F844A0C4F840A0A068B0F5004F09D1FB
:1013E0002068016821F0400101602068016841F433
:1013F0008041016020680168490603D4016841F01A
:1014000040010160E068B0F5006F606803D030B360
:10141000012E24D041E008B1012E1CD1206B21689F
:101420000088C86006E020688168890709D5216BBB
:101430000988C160206B801C2063E08E401EE0861E
:1014400009E0FFF7D1FBA0EB0800A84202D3681C1B
:1014500001D031E07DB3E08E0028E4D120E0206BA4
:1014600021680078087306E020688168890709D53B
:10147000216B09780173206B401C2063E08E401EB5
:10148000E0860AE0FFF7B0FBA0EB0800A84203D318
:10149000681C02D010E017E06DB1E08E0028E3D1A7
:1014A00042462946204600F07BFE08B120206065B8
:1014B000A06818B106E0FFE7032706E02068C168CE
:1014C00080680090606D00B1012784F851B084F805
:1014D00050A0384666E710B5401EB0F1807F01D3BA
:1014E000012010BD4FF0E02460610F21601701F072
:1014F00083F80020A06107202061002010BD0000BB
:1015000070B590F83C20012A32D0012480F83C408C
:10151000022280F83D2003685A689D6822F0700618
:101520000A6832435A60134B02689A4214D0B2F1EF
:10153000804F11D0104B9A420ED0104B9A420BD0D4
:101540000F4B9A4208D00F4B9A4205D00E4B9A424D
:1015500002D00E4B9A4204D1496825F0800319430A
:10156000916080F83D40002180F83C10084670BD35
:10157000022070BD0000014000040040000800404F
:10158000000C0040000401400040014000180040F1
:1015900010B5040003D094F83D0010B107E001201D
:1015A00010BD002084F83C00204600F01FF8022007
:1015B00084F83D00211D206800F0CEFE012084F853
:1015C000460084F83E0084F83F0084F8400084F828
:1015D000410084F8420084F8430084F8440084F811
:1015E000450084F83D00002010BD000008B50068EB
:1015F0000649884208D10648016841F0100101609F
:10160000006800F01000009008BD000000100040CD
:101610004038024090F83D10012901D00120704768
:10162000022180F83D1000681149884214D0B0F1C1
:10163000804F11D00F4988420ED00F4988420BD0FD
:101640000E49884208D00E49884205D00D4988428B
:1016500002D00D49884204D1816801F007010629B2
:1016600003D0016841F001010160002070470000D3
:10167000000001400004004000080040000C004051
:1016800000040140004001400018004001680A6A5F
:1016900041F211131A4207D10A6A9B101A4203D170
:1016A0000A6822F001020A60012180F83D10002042
:1016B000704770B5040004D094F83D00002510B1C7
:1016C00006E0012070BD84F83C50204600F022F86E
:1016D000242084F83D002068C16821F40051C160D5
:1016E000204600F0B5FE2068016921F490410161B7
:1016F0002068416921F02A0141612068C16841F4F4
:101700000051C1602564202084F83D0084F83E002B
:10171000002070BD10B586B0044614216846FEF75F
:1017200087FD14492068884221D1134800210268AE
:1017300042F010020260006800F0100005900E48B0
:101740001438026842F001020260006800F00100F3
:1017500005904FF4C06000900220CDE90101032004
:1017600003900720049069460448FFF73BF906B050
:1017700010BD00000010014044380240000002404B
:101780002DE9F843044690F83D001F4616460D46E5
:1017900020284CD1C5B1BEB194F83C00012846D0F8
:1017A000012084F83C004FF00008C4F8408021205C
:1017B00084F83D00FFF718FAA6848146E684A06805
:1017C000B0F5805F03D004E00120BDE8F883206914
:1017D00028B12E465FF0000584F83C800EE000261C
:1017E000FAE78021204600F0B9FEA0B9AEB116F8A4
:1017F000010B21684860E08C401EE084E08C4B4681
:101800004FF0000200970028EBD14FF04001204636
:1018100000F0A4FE30B10320D7E735F8020BC0F387
:101820000800E6E7202084F83D000020CDE70220F4
:10183000CBE7FEE7024601210148FFF7D0B90000DF
:10184000000402402DE9F8430546144800242146CF
:1018500002884388204603FB02F600F093FA00F06A
:10186000C5FB012000F00CFA0020FFF7E3FF2F0A70
:10187000EDB24FF6FF780AE08DF800708DF8015058
:101880004346022269460648FFF772FD641CB442D3
:10189000F2D3BDE8F8430120FFF7CCBF7000002071
:1018A0007C000020F0B41149F0232C252A26104A90
:1018B0004FF0000C4FF4A0742B2760B10120887109
:1018C0000C804B80CD710E724F7282F800C0107880
:1018D000F0BC00F0DDB981F806C00B804C80CD7102
:1018E0000E724F7205201070F1E7000070000020AA
:1018F000020000202DE9FE4F161ACDE900104FF02E
:1019000000085D1A47464FF0FF30002E02DD4FF011
:10191000010102E003D14FF000018B4602E0834653
:10192000C6F10006002D02DD4FF0010002E003D1F8
:101930004FF00000824602E08246C5F10005AE424B
:1019400001DD344600E02C46601C4FF00009029097
:1019500019E000980C9A81B2019880B200F018F852
:10196000B0442F44A04504DD0198A8EB0408584476
:101970000190A74203DD00983F1B5044009009F1FD
:1019800001001FFA80F902998945E2DDBDE8FE8F6A
:1019900010B5144600F0CCF900F028FBA0B2BDE869
:1019A000104000F009BB2DE9F8431D46089C16467F
:1019B000884607460B460094FFF79CFF3A462B46A5
:1019C000414610460094FFF795FF2B4632461946D4
:1019D00038460094FFF78EFF32462B4641461046AC
:1019E0000094FFF787FFBDE8F8832DE9F0418446B6
:1019F000A2EB0C04581A401C641C04FB00F683B2D2
:101A00000025A2B26046069F00F0BCF900F0EEFA95
:101A1000012000F035F90020FFF70CFF03E0384605
:101A200000F0CAFA6D1CB542F9D3BDE8F0410120BF
:101A3000FFF700BF10B5112000F0AAFA7820FEF7DA
:101A4000BFFF362000F0A4FA002000F08DFA3A2003
:101A500000F09EFA552000F087FAB02000F098FAC6
:101A6000112000F081FAF02000F07EFAB12000F0A1
:101A70008FFA402000F078FA102000F075FA12205A
:101A800000F072FAB22000F083FA0C2000F06CFA39
:101A90000C2000F069FA002000F066FA332000F014
:101AA00063FA332000F060FAB72000F071FA752075
:101AB00000F05AFABB2000F06BFA192000F054FA3B
:101AC000C02000F065FA2C2000F04EFAC22000F091
:101AD0005FFA012000F048FAC32000F059FA0B2009
:101AE00000F042FAC42000F053FA202000F03CFA43
:101AF000C62000F04DFA0F2000F036FAD02000F09A
:101B000047FAA42000F030FAA12000F02DFAB0200E
:101B100000F03EFA002000F027FAD02000F024FA6E
:101B2000E02000F035FA702000F01EFA042000F0EA
:101B30001BFA0C2000F018FA0E2000F015FA0E2007
:101B400000F012FA072000F00FFA322000F00CFA31
:101B5000442000F009FA442000F006FA072000F0C3
:101B600003FA102000F000FA0E2000F0FDF9122018
:101B700000F0FAF9162000F0F7F9E12000F008FA79
:101B8000702000F0F1F9032000F0EEF90A2000F0D7
:101B9000EBF90D2000F0E8F90D2000F0E5F91A202E
:101BA00000F0E2F9332000F0DFF9442000F0DCF926
:101BB000442000F0D9F93F2000F0D6F91C2000F0B5
:101BC000D3F91B2000F0D0F91D2000F0CDF9212021
:101BD00000F0CAF9352000F0DBF9002000F0C4F96C
:101BE000BDE81040292000F0D3B9000010B5012055
:101BF00000F03EF80A20FEF7E3FE002000F038F87F
:101C00001420FEF7DDFE012000F032F81420FEF76C
:101C1000D7FEFFF70FFF0020FFF744FE4FF6FF70DF
:101C2000FFF710FE084802884088BDE810403F38A2
:101C300000EBD070C0F34F01503A02EBD270C0F30A
:101C40004F00024A00F04ABF700000202C37000805
:101C5000024620210148FEF7C2BF000000080240F2
:101C60000246012000E05043491EC9B2FBD2704732
:101C7000024610210148FEF7B2BF000000080240F2
:101C8000024602210148FEF7AABF000000040240FC
:101C900010B50021082805D2DFE800F0161812144C
:101CA0000C19100E082812D2DFE800F01104060803
:101CB0000A0C0E1080210AE0402108E0C02106E055
:101CC000202104E0602102E0A02100E0E021362094
:101CD00000F092F9154C207A00F05AF9002000F03B
:101CE00043F9002000F040F92088401EC0F307208F
:101CF00000F03AF92078401EC0B200F035F9607A61
:101D000000F046F9002000F02FF9002000F02CF937
:101D10006088401EC0F3072000F026F9A078BDE8D7
:101D20001040401EC0B200F01FB90000700000203B
:101D30002DE9F041124F05460C46387A00F028F99B
:101D40002E0A304600F010F9E8B200F00DF93046E6
:101D500000F00AF9E8B200F007F9787A00F018F913
:101D6000250A284600F000F9E0B200F0FDF8284608
:101D700000F0FAF8E0B2BDE8F04100F0F5B800007C
:101D8000700000202DE9F04105461044401E87B246
:101D9000C818DFF84C80401E86B20C4698F8080040
:101DA00000F0F6F8280A00F0DFF8E8B200F0DCF8FE
:101DB000380A00F0D9F8F8B200F0D6F898F809001F
:101DC00000F0E6F8200A00F0CFF8E0B200F0CCF81E
:101DD000300A00F0C9F8F0B2BDE8F04100F0C4B834
:101DE000700000202DE9FF5F1D460C468B4658070A
:101DF00000D0012000EBD500690810FB01F0203A6B
:101E000000F0FF0AD0B20C2D07D0102D3ED1204992
:101E100001EB00108146002636E01E4900EB400031
:101E200001EB8000F6E700BF19F806704FF00008DC
:101E3000380601D50F9A03E00E9828B91648428853
:101E400021460098FFF7A4FD7806070E1348641C8E
:101E5000A4B24088A04219D9A4EB0B00A8420AD131
:101E600000985C46401C80B200900C4801880098A5
:101E700081420BD906E008F1010000F0FF08B8F13B
:101E8000080FD5D3761CF6B25645CDD3BDE8FF9FDB
:101E90003C310008C82C000802000020700000201F
:101EA0002DE9FF4F83B00026DDE910BA1D468146BB
:101EB0003446B0464FEA5B0726E0281B401EC1B2FD
:101EC0000A20FFF7CDFE0599B1FBF0F00A21B0FB27
:101ED000F1F201FB120026B9691E8C4201DA38B119
:101EE00001263030C2B207FB049080B25B4604E0AA
:101EF00007FB049080B25B462022CDE9008A04995A
:101F0000FFF770FF641CE4B2AC42D6D307B0BDE863
:101F1000F08F2DE9FC5F044600F0FF0910190D4613
:101F2000DDE90CB61FFA80F8581987B24FF0000AA5
:101F300013E0444503D305EB0B004C4685B2BD428C
:101F400010D20E985B46CDE900A029462046FFF747
:101F500049FF04EB5B0084B2761C3278A2F12000CA
:101F60005E28E6D9BDE8FC9F01B50120FFF788FE99
:101F70000020FFF75FFC4FF6FF730122694603481C
:101F8000FFF7F6F90120FFF755FC08BD7C000020A3
:101F900001B50020FFF774FE0020FFF74BFC4FF661
:101FA000FF73012269460348FFF7E2F90120FFF7BA
:101FB00041FC08BD7C00002038B504460120FFF735
:101FC0005FFE0020FFF736FC200A8DF800008DF838
:101FD00001404FF6FF73022269460348FFF7C8F934
:101FE0000120FFF727FC38BD7C0000200148C079A4
:101FF000FFF7CEBF7000002010B50C46FFF7C8FFFA
:10200000E0B2BDE81040FFF7AFBF00002DE9F0439C
:1020100087B014216846FEF70BF92A4800260168AC
:1020200041F080010160016801F0800105910168C3
:1020300041F004010160016801F0040105910168AB
:1020400041F001010160016801F0010105910168A1
:1020500041F00201016000681B4F00F00200059092
:10206000012233213846FEF7BAFDDFF860800122F5
:1020700006214046FEF7B3FDDFF85490012203210C
:102080004846FEF7ACFD02253320012403958DE878
:10209000510069463846FEF7A5FC0620009001AACB
:1020A000112082E8310069464046FEF79BFC032080
:1020B00003958DE8510069464846FEF793FC07B04A
:1020C000BDE8F083303802400008024000000240C2
:1020D00000040240104810B50E4901604FF48271AF
:1020E0004160002102228160C0E9031201224261A5
:1020F000520282610822C0E90721416281620A21FD
:10210000C162FFF7A3F8002803D0BDE81040FEF736
:102110004CBA10BD003001407C0000201CB50024EA
:102120000E4800940C49019401604721C0E9011454
:102130004FF6FF718461C160FFF72AFA08B1FEF71C
:1021400034FA0094694605480194FFF7D9F900284C
:1021500001D0FEF72AFA1CBD00100040D400002078
:102160000C4810B50A4901604FF4E131416000218B
:1021700081600C22C160C0E904128161C161FFF776
:1021800098FA002803D0BDE81040FEF70EBA10BD43
:10219000001001401C010020FEE7FEE77047000030
:1021A00038B504461248134B0068B0FBF3F04FF407
:1021B0007A73584300906068B0F5827F0DD10B466A
:1021C000009200228021204600F016F870B1606D68
:1021D00040F020006065032038BD009830B1401EFB
:1021E000009020688068C0430006F6D5002038BD06
:1021F0006800002000366E012DE9F8431E46914626
:1022000088460446089DFEF7EFFC401B351AFEF792
:10221000EBFC074625480068C0F3CB30684338E044
:10222000701C37D0FEF7E0FCC01BA84203D215B1EA
:10223000009860B32CE02068416821F0E001416023
:102240006068B0F5827F0BD1A068B0F5004F02D076
:10225000B0F5806F04D12068016821F04001016071
:10226000A06AB0F5005F09D12068016821F400512F
:1022700001602068016841F400510160012084F888
:102280005100002084F850000320BDE8F8830025A9
:10229000401E00902068816838EA010004D00021C7
:1022A0004945BDD10020F0E70121F9E76800002091
:1022B0007047FEF79FBC000030B593B030216846F0
:1022C000FDF7B6FF14210CA8FDF7B2FF1C4800254E
:1022D000016841F080510160006800F08050119069
:1022E0001848016841F4804101600068022400F44C
:1022F0008040119001200090000401908001CDE900
:102300000640082008909020CDE9090404200B9095
:102310006846FEF7E5FD08B172B6FEE70CA90F208E
:1023200081E831004FF48050CDE90F0502210CA85F
:10233000FEF7ECFC002801D072B6FEE713B030BD0A
:1023400040380240007000400248016841F47001CA
:102350000160704788ED00E0F0B50268254C264D1D
:10236000264E274F274B4FF0804CA04209D06045A6
:1023700007D0A84205D0B04203D0B84201D098425D
:1023800004D122F0700E4A6842EA0E02A0421BD02D
:10239000604519D0A84217D0B04215D0B84213D02A
:1023A000984211D0184DA8420ED0184DA8420BD01B
:1023B000174DA84208D0174DA84205D0164DA84287
:1023C00002D0164DA84203D122F44075CA682A43B0
:1023D0004D6922F080022A4302608A68C2620A685C
:1023E0008262A04201D0984201D1096901630121B2
:1023F0004161F0BD000001400004004000080040C1
:10240000000C004000040140004001400044014035
:102410000048014000180040001C0040002000401F
:1024200010B5FEF7C5F808B1002010BD06480549F3
:10243000416090F82C1041F0800180F82C100120B0
:1024400010BD0000E90700080C000020FEF7CCB921
:1024500070B5044600680169E26821F440511143F7
:1024600001612169A068E269084361691143084379
:102470002168CA6849F20C639A430243CA60206823
:102480004169A26921F440711143416131492068D9
:10249000884202D03049884202D1FEF7E1FC01E0D7
:1024A000FEF7CEFCE2690023192164253226B2F53D
:1024B000004F626828D0A0FB0101930F9200FDF746
:1024C0007FFE0146B0FBF5F06FF01802504301EBC0
:1024D000800006EB0010B0FBF5F000F0F002B1FB5D
:1024E000F5F002EB0012B1FBF5F06FF01803584362
:1024F00001EB800006EB0010B0FBF5F000F00F00E0
:1025000021681044886070BDA0FB010192185B41F6
:10251000FDF756FE0146B0FBF5F00201B1FBF5F008
:102520006FF01803584301EB800006EBC000B0FBCE
:10253000F5F000F0F80002EB4002B1FBF5F0584373
:1025400001EB800006EBC000B0FBF5F000F00700E7
:10255000D6E7000000100140001401402DE9F041D1
:10256000984617460E460446069D27E0681C25D06F
:102570002DB1FEF739FBA0EB0800A8421ED9206858
:102580000C3050E8001F21F4D07140E80012002AFE
:10259000F5D12068143050E8001F21F0010140E817
:1025A0000012002AF5D1202084F83D0084F83E0076
:1025B000002084F83C000320BDE8F081206800681A
:1025C00036EA000004D00020B842CFD00020F3E764
:1025D0000120F9E7FEE700000FB4054B10B503A991
:1025E000044A029800F028F810BC5DF814FB0000C3
:1025F000C52A00086C0000200907090E002804DB2A
:1026000000F1E02080F80014704700F00F0000F1A6
:10261000E02080F8141D704702E008C8121F08C1AE
:10262000002AFAD170477047002001E001C1121F53
:10263000002AFBD1704700002DE9FF4F8DB00F46F7
:102640000546002606E025280BD0DDE90F1290474D
:102650006D1C761C28780028F5D111B03046BDE8F5
:10266000F08F0024A246A1460122EC4900E0044379
:1026700015F8013F203B02FA03F00842F7D1287811
:102680002A2810D06FF02F022878A0F130010929F4
:1026900014D80AEB8A0102EB410144F0020400EB7A
:1026A000010A6D1CF0E701CF5FEA000A03D544F48C
:1026B0000054CAF1000A44F002046D1C28782E2848
:1026C00017D115F8010F44F004042A280ED06FF03A
:1026D0002F022878A0F1300109290AD809EB8901D5
:1026E00002EB410100EB01096D1CF2E757F8049B76
:1026F0006D1C28786C280FD006DC4C2817D0682871
:102700000DD06A2814D104E0742810D07A280FD193
:102710000DE044F400140AE044F4801401E044F4B1
:1027200040146978814202D104F580146D1C6D1C3F
:102730002A786E2A1FD00CDC632A31D004DC002AF0
:102740008BD0582A11D1A3E0642A68D0692A0CD111
:1027500065E0732A2ED004DC6F2A73D0702A04D16E
:102760009BE0752A6FD0782A6ED01046DDE90F12F3
:102770009047761C50E1C4F30250022806D003288B
:1027800009D0042801CF09D0066045E101CFF11737
:10279000C0E9006140E101CF06803DE106703BE108
:1027A00017F8040B8DF8000000208DF80100EB46AF
:1027B000012003E057F804BB4FF0FF3061074FF0F2
:1027C000000102D40DE008F10101884649450FDA05
:1027D0008045F8DB1BF808100029F4D108E008F167
:1027E000010188468142FADB1BF808100029F6D166
:1027F000DDE90F23AAEB08008146214600F036F9F7
:10280000304400EB080604E0DDE90F121BF8010B71
:102810009047B8F10108F7D221464846F7E00A216F
:10282000C4F302534FF0000B0891022B04D001CFE8
:10283000C117032B09D00AE0FF1D27F00707F7E8AF
:10284000020108E032E01FE020E000B2C117042BD3
:1028500001D140B2C117031E71F1000307DA4FF036
:10286000000CD0EB0C006CEB01012D2302E02305E2
:1028700004D52B238DF82430012303E0E30701D096
:102880002023F7E7984658E00A2110E010210EE0D7
:1028900010204FF0000B08900CE010214FF0000BBF
:1028A00044F004044FF00809089103E008214FF0B8
:1028B000000B0891C4F30253022B04D001CF002176
:1028C000032B06D006E0FF1D27F00707F7E80201FB
:1028D00003E080B2042B00D1C0B24FF00008230700
:1028E0002BD5702A07D0DDF820C08CF0100C5CEAE4
:1028F0000B0C05D00EE040238DF82430012308E0B6
:1029000050EA010306D030238DF824308DF82520BD
:1029100002239846DDF820C08CF0080C5CEA0B0C12
:102920000BD150EA010301D1630706D530238DF89E
:1029300024304FF00108A9F10109582A04D038A227
:102940000B9208AA0A920BE03AA2F9E75B46089AB2
:10295000FDF736FC0B9B9B5C0A9A521E0A92137081
:1029600050EA0102F2D10A98ADEB000000F1200B11
:10297000600702D524F4803401E04FF00109D94505
:1029800002DDA9EB0B0000E0002000EB0B0141444D
:102990000890AAEB010AE00306D4DDE90F232146E3
:1029A000504600F063F806444FF0000908E009A91A
:1029B00011F80900DDE90F12904709F10109761CB1
:1029C000C145F4DBE0030CD5DDE90F232146504679
:1029D00000F04CF8064404E0DDE90F123020904787
:1029E000761C0899481E08900029F5DC08E00A9832
:1029F0000A990078491C0A91DDE90F129047761C6C
:102A0000BBF10001ABF1010BF1DC21465046DDE9E1
:102A10000F2300F019F806446D1C1BE6092801007D
:102A20003031323334353637383961626364656644
:102A30000000000030313233343536373839414206
:102A400043444546000000002DE9F04104460025BE
:102A50001E461746880404D405E039462020B047B6
:102A60006D1C641EF9D52846BDE8F0812DE9F041C2
:102A7000044600251E469046C80301D5302700E0D5
:102A80002027880404D505E041463846B0476D1C30
:102A9000641EF9D52846BDE8F081000070B5084CE9
:102AA00005460020216848622046FEF7B3FD2068F5
:102AB000416AA942FCD3BDE870400148FEF7E6BD7B
:102AC000D400002013B54FF0FF33012269460248BD
:102AD000FEF756FE00981CBD1C0100201CB502F13B
:102AE00008041378CDE900349388528800F00CF87C
:102AF0001CBD0A7818B1487840EA0220704748782F
:102B000042EA0020704700002DE9F0411F46DDE950
:102B100006651446FFF736F9FFF768FA67430024A5
:102B200006F0100607E029463046FFF7E2FFFFF700
:102B300043FA641CAD1CBC42F5D304480021438811
:102B40000288BDE8F0410846FFF71CB9700000207C
:102B50000EB5FEF757F8FFF7AFFBFFF757FAFFF791
:102B6000B9FAFFF7FDFAFFF7D9FA3E4800680168A5
:102B700041F0400101603CA0FFF72EFDFFF736F861
:102B80000120FFF765F8FFF74BFC4FF6FF764FF497
:102B90007845102480B93046FEF754FE35A0CDE9C3
:102BA00000400A211E23C82202950846FFF7B1F90A
:102BB0004FF47A70FDF704FFB0463046FEF742FE50
:102BC000314E32A00A213580CDE900401E23C822B3
:102BD00002950846FFF79DF930A0CDE900401F2778
:102BE0001E23C822282102970A20FFF792F9308875
:102BF00031A10094CDE901101E23C82246210A20EC
:102C0000FFF787F96420FDF7DBFE30880523CDE967
:102C1000004043F2390264210A20FFF741F9822380
:102C2000642219460A200097FEF764FE4FF4FC6008
:102C30000090BE233C2296210A20FEF7B4FE2B46CC
:102C40001422AA219620FDF74EFC4046FEF7FAFD1D
:102C50004FF47740C823002100901A460846FEF73B
:102C6000C4FEFEE77C0000204C43445F496E69745B
:102C7000210D0A00546F75636820496E69742046FF
:102C800061696C6564210000000000204C43442011
:102C9000546573742044656D6F0000005072657355
:102CA000732052535420666F7220746F75636820CE
:102CB000746573740000000048656C6C6F20576F7A
:102CC000726C6421000000000000000000000000A1
:102CD00000000000000000003F4000000000000075
:102CE00000003000400030004000000009000BC030
:102CF0003D000BC03D00090018C024407FE0224089
:102D000031800000180024C01B000D80324001807B
:102D100003801C4027401C800740004010006000DA
:102D200000000000000000000000000000001F8004
:102D3000204040200000402020401F800000000074
:102D4000090006001F8006000900000004000400BE
:102D50003F8004000400000000100060000000003C
:102D6000000000000400040004000400040000004F
:102D7000000000400000000000000000002001C032
:102D800006003800400000001F8020402040204006
:102D90001F800000000010403FC000400000000005
:102DA00018C02140224024401840000010802040DC
:102DB000244024401B80000002000D0011003FC091
:102DC000014000003C802440244024402380000037
:102DD0001F80244024403440038000003000200045
:102DE00027C03800200000001B80244024402440DD
:102DF0001B8000001C0022C0224022401F800000D7
:102E0000000000000840000000000000000000007A
:102E10000460000000000000000004000A0011002F
:102E20002080404009000900090009000900000055
:102E300000004040208011000A000400180020001B
:102E400023402400180000001F8020402740294014
:102E50001F400000004007C039000F0001C00040C3
:102E600020403FC0244024401B8000001F802040A1
:102E7000204020403080000020403FC020402040C3
:102E80001F80000020403FC024402E4030C0000082
:102E900020403FC024402E00300000000F00108072
:102EA000204022403380020020403FC00400040044
:102EB0003FC02040204020403FC020402040000034
:102EC0000060202020203FC02000200020403FC084
:102ED00024400B0030C0204020403FC02040004034
:102EE000004000C03FC03C0003C03C003FC00000A9
:102EF00020403FC00C4023003FC020001F802040E6
:102F0000204020401F80000020403FC0244024007B
:102F1000180000001F802140214020E01FA0000079
:102F200020403FC02440260019C0004018C0244063
:102F30002440224031800000300020403FC020402B
:102F40003000000020003F80004000403F80200013
:102F500020003E0001C0070038002000380007C0F4
:102F60003C0007C038000000204039C0060039C0CE
:102F7000204000002000384007C0384020000000FA
:102F8000304021C02640384020C000000000000032
:102F90007FE0402040200000000070000C00038013
:102FA000004000000000402040207FE000000000C2
:102FB0000000200040002000000000000010001071
:102FC0000010001000100010000000004000000081
:102FD00000000000000002800540054003C00040E2
:102FE00020003FC004400440038000000000038034
:102FF00004400440064000000000038004402440D8
:103000003FC0004000000380054005400340000031
:10301000000004401FC0244024402000000002E0C3
:10302000055005500650042020403FC004400400D5
:1030300003C000400000044027C000400000000022
:1030400000100010041027E00000000020403FC0E6
:103050000140070004C00440204020403FC0004021
:103060000040000007C0040007C0040003C00000C7
:10307000044007C00440040003C000400000038077
:103080000440044003800000041007F00450044092
:1030900003800000000003800440045007F000108B
:1030A000044007C002400400040000000000064085
:1030B0000540054004C00000000004001F800440DB
:1030C00000400000040007800040044007C00040AA
:1030D0000400070004C0018006000400060001C0CF
:1030E000070001C006000000044006C0010006C041
:1030F000044000000410071004E0018006000400F2
:103100000000044005C0064004400000000000002C
:1031100004007BE040200000000000000000FFF001
:1031200000000000000040207BE0040000000000E0
:10313000400080004000200020004000000000000F
:10314000000000000000000000000000000000007F
:1031500000001FCC000C0000000000000000080070
:10316000300060000800300060000000022003FC16
:103170001E20022003FC1E200220000000000E186A
:1031800011043FFF10840C78000000000F00108431
:103190000F3800C0077818840078000000780F848A
:1031A00010C411240E9800E4008400080800680090
:1031B000700000000000000000000000000000009F
:1031C000000007E018182004400200000000400240
:1031D0002004181807E00000000000000240024030
:1031E00001800FF00180024002400000008000805A
:1031F00000800FF800800080008000000001000DBA
:10320000000E000000000000000000000000008030
:103210000080008000800080008000800000000CA2
:10322000000C00000000000000000000000000068C
:10323000001800600180060018002000000007F060
:10324000080810041004080807F000000000080433
:1032500008041FFC000400040000000000000E0C25
:1032600010141024104411840E0C000000000C18DF
:1032700010041104110412880C700000000000E01A
:103280000320042408241FFC0024000000001F98D1
:10329000108411041104108810700000000007F061
:1032A00008881104110418880070000000001C0038
:1032B000100010FC13001C001000000000000E386D
:1032C00011441084108411440E38000000000700DF
:1032D000088C10441044088807F00000000000002B
:1032E0000000030C030C00000000000000000000C0
:1032F0000001010600000000000000000000008046
:1033000001400220041008081004000002200220DE
:1033100002200220022002200220000000001004EF
:1033200008080410022001400080000000000E0088
:103330001200100C106C10800F00000003E00C183D
:1033400013E4142417C4082807D000000004003C2C
:1033500003C41C40074000E4001C000410041FFCD0
:103360001104110411040E880070000003E00C1811
:1033700010041004100410081C10000010041FFC9E
:10338000100410041004080807F0000010041FFCCB
:103390001104110417C410040818000010041FFCC5
:1033A0001104110017C010000800000003E00C1801
:1033B0001004100410441C780040000010041FFC8E
:1033C00010840080008010841FFC10040000100492
:1033D00010041FFC10041004000000000003000192
:1033E000100110011FFE10001000000010041FFC4F
:1033F000110403801464181C1004000010041FFC46
:103400001004000400040004000C000010041FFC61
:103410001F0000FC1F001FFC1004000010041FFC14
:103420000C04030000E010181FFC100007F008084F
:10343000100410041004080807F0000010041FFC1A
:1034400010841080108010800F00000007F0081812
:1034500010241024101C080A07F2000010041FFC9E
:103460001104110011C011300E0C000400000E1CDC
:1034700011041084108410441C380000180010003F
:1034800010041FFC100410001800000010001FF8AA
:1034900010040004000410041FF8100010001E00A7
:1034A00011E0001C007013801C0010001FC0103CB5
:1034B00000E01F0000E0103C1FC000001004180CCA
:1034C000163401C001C01634180C100410001C0082
:1034D000130400FC13041C00100000000804101C5E
:1034E0001064108413041C04101800000000000075
:1034F00000007FFE40024002400200000000300059
:103500000C0003800060001C00030000000040026B
:10351000400240027FFE00000000000000000000AA
:103520002000400040004000200000000001000199
:103530000001000100010001000100010000400045
:103540004000200000000000000000000000009883
:10355000012401440144014400FC000410001FFC4C
:103560000088010401040088007000000000007061
:1035700000880104010401040088000000000070BC
:1035800000880104010411081FFC0004000000F879
:10359000014401440144014400C80000000001044A
:1035A00001040FFC1104110411001800000000D6E2
:1035B00001290129012901C90106000010041FFC8D
:1035C000008401000100010400FC0004000001046B
:1035D000190419FC000400040000000000000003AE
:1035E00000010101190119FE0000000010041FFC78
:1035F0000024004001B4010C01040000000010048C
:1036000010041FFC0004000400000000010401FC81
:103610000104010001FC0104010000FC010401FCA3
:10362000008401000100010400FC0004000000F817
:10363000010401040104010400F80000010101FF7C
:103640000085010401040088007000000000007083
:10365000008801040104010501FF000101040104C7
:1036600001FC00840104010001800000000000CC86
:10367000012401240124012401980000000001001C
:10368000010007F80104010400000000010001F836
:10369000000400040004010801FC00040100018092
:1036A0000170000C001001600180010001F0010CAC
:1036B000003001C00030010C01F0010000000104E5
:1036C000018C00740170018C010400000101018172
:1036D0000171000E001801600180010000000184EA
:1036E000010C013401440184010C000000000000C1
:1036F0000000000001003EFC40024002000000000B
:1037000000000000FFFF0000000000000000400279
:1037100040023EFC010000000000000000006000CC
:103720008000800040004000200020000010500079
:103730003F00011BFFFFFFFFFFFFFFFFFFFFFFFF3A
:10374000FFFFFFFFFFFFFFFFFFFFFFFFFFFFFFFF89
:10375000FFFFFFFFFFFFFFFFFFFFFFFFFFFFFFFF79
:10376000FFFFFFFFFFFFFFFFDFFFFFFFFFFFFFFF89
:10377000FFFFDFF71DCF9CB61C8E9B751A65F95CA9
:10378000D85CB8549954D9541955395D9A751B8E23
:103790009CAE3ECFBEFFFFFFFFFFDEFFFFFFFFFF40
:1037A000FFFFDEFFFFFFFFF7FFF7FFFFFEFFFFFF5B
:1037B000FFFFFFFFFFFFFFFFFFFFFFFFFFFFFFFF19
:1037C000FFFFFFFFFFFFFFFFFFFFFFFFFFFFFFFF09
:1037D000FFFFFFFFFFFFFFFFFFFFFFFFFFFFFFFFF9
:1037E000FFFFFFFFFFFFFFFFFFFFFFFFFFFFFFFFE9
:1037F000FFFFFFFFFFFFDFFFFFFFFFFFFFFFFFFFF9
:10380000FFFFFFFFFEF7FFFFFFFFFFFF7FE77CAE3D
:103810005A75D854573C172C1724372C5734783CFA
:10382000993C9934993C983C773C77345634162C23
:10383000372C572CD94C7B757DAE5ED7FFF7FFFF39
:10384000FFFFFFFFDEFFFFFFFFFFFFFFFFFFFFFFA9
:10385000FFFFFFFFFFFFFFFFFFFFFFFFFFFFFFFF78
:10386000FFFFFFFFFFFFFFFFFFFFFFFFFFFFFFFF68
:10387000FFFFFFFFFFFFFFFFFFFFFFFFFFFFFFFF58
:10388000FFFFFFFFFFFFFFFFFFFFFFFFFFFFFFFF48
:10389000FFFFFFFFFEFFFFFFFFFFFFFFFFFFFFFF39
:1038A000FFFFFEFFDFFFDFFFDDBE5A75573CF61B53
:1038B000172437345834793C783C7844984C784411
:1038C000783CB93C5744784498449844783C783CD8
:1038D000783C7744173C172CF71B993C5A6D9CB6E3
:1038E000FFF7FEFFFEFFFEFFFFFFFFFFFFFFFFFFF3
:1038F000FFFFFFFFFFFFFFFFFFFFFFFFFFFFFFFFD8
:10390000FFFFFFFFFFFFFFFFFFFFFFFFFFFFFFFFC7
:10391000FFFFFFFFFFFFFFFFFFFFFFFFFFFFFFFFB7
:10392000FFFFFFFFFFFFFFFFFFFFFFFFFFFFFFFFA7
:10393000FFFFFFFFFFFFFFFFDFFFFFFFFFFFFFFFB7
:10394000FFFFFFFF9EB6D864B423F61B782C783CAB
:10395000783C784457447844574457447744584413
:10396000583C783C983C9844773C573C9844774482
:10397000773C983C76449844993C573CF623F72B87
:10398000F95C7CA6FFF7FFFFFFFFFFFFFFFFFFFFD4
:10399000FFFFFFFFFFFFFFFFFFFFFFFFFFFFFFFF37
:1039A000FFFFFFFFFFFFFFFFFFFFFFFFFFFFFFFF27
:1039B000FFFFFFFFFFFFFFFFFFFFFFFFFFFFFFFF17
:1039C000FFFFFFFFFFFFFFFFFFFFFFFFFFFFFFFF07
:1039D000FFFFFFFFFFFFFFFFFFFFFFFFDEFFFFFF18
:1039E0005ED7F864B613F623573C7744573C583CEF
:1039F00058445744783C573C773C773C573C773C9D
:103A0000973C563C773C773C583C37341734F62B80
:103A1000362C362C9744773C573C773C372CF81B98
:103A20009613340BD85C5FCFFFFFFFFFFFFFFFFF54
:103A3000FFFFFFFFFFFFFFFFFFFFFFFFFFFFFFFF96
:103A4000FFFFFFFFFFFFFFFFFFFFFFFFFFFFFFFF86
:103A5000FFFFFFFFFFFFFFFFFFFFFFFFFFFFFFFF76
:103A6000FFFFFFFFFFFFFFFFFFFFFFFFFFFFFFFF66
:103A7000FFFFFFFFFFFFFFFFFFFFFEFFFFFF3BAE6C
:103A8000F53BB61B363C583C583C3734373C574422
:103A9000373C583C573C573C363C363C573C573CEF
:103AA00037343734D623B623D72B383C994CD95CDE
:103AB0005A6D196D5844372CF623F633B85C587D8F
:103AC000B98D1B9ED954B4333C96FFF7DEFFDEFF61
:103AD000FFFFFFFFFFFFFFFFFFFFFFFFFFFFFFFFF6
:103AE000FFFFFFFFFFFFFFFFFFFFFFFFFFFFFFFFE6
:103AF000FFFFFFFFFFFFFFFFFFFFFFFFFFFFFFFFD6
:103B0000FFFFFFFFFFFFFFFFFFFFFFFFFFFFFFFFC5
:103B1000FFFFFFFFFFFFDFF7FFFFFFFF998D75231B
:103B2000F8233734173C163C163C363C573C373CA0
:103B3000F73B3744173C3844373C383C593CF72B6B
:103B4000B52B163C386D3B9EFDC65DDFFFF7FFEFE2
:103B50001EBF3875B61BB6337A85FCCEFEFFFFFF5D
:103B6000FFFFFFF7F95CD723B61B597DFFFFFFFF6F
:103B7000DFFFFFFFFFFFFFFFFFFFFFFFFFFFFFFF75
:103B8000FFFFFFFFFFFFFFFFFFFFFFFFFFFFFFFF45
:103B9000FFFFFFFFFFFFFFFFFFFFFFFFFFFFFFFF35
:103BA000FFFFFFFFFFFFFFFFFFFFFFFFFFFFFFFF25
:103BB000FFFFFFFFFFFFFFFFFFF7597D541BF72BB0
:103BC000173C163C173CF63B1744F73BF63B163CBC
:103BD000363C3634363CF633373C37347423F53BC9
:103BE000DA8D7FD7FFFFFFFFFFFFFFFF9EE778859E
:103BF000B533160B98543ED7FFFFFFFFFFFFDEFFE4
:103C0000FFFF1875951B573C173495233975FFF73F
:103C1000FEFFFFFFFFFFFFFFFFFFFFFFFFFFFFFFB5
:103C2000FFFFFFFFFFFFFFFFFFFFFFFFFFFFFFFFA4
:103C3000FFFFFFFFFFFFFFFFFFFFFFFFFFFFFFFF94
:103C4000FFFFFFFFFFFFFFFFFFFFFFFFFFFFFFFF84
:103C5000FFFFFFFFFFFFFFFFBB8D550BF72B154449
:103C6000F63B1734163C163C173CF63BF633173C34
:103C7000F63B163CD7333744162C541BB8647FE709
:103C8000FFFFFEFFFFFFFFFFFFFF5C9EF733761B8A
:103C9000551BB764BEFFFFFFDFFFFFFFFFFFFFFF06
:103CA0003C96751B373C353C364437347513BB8521
:103CB000FEFFFFFFFFFFFFFFFFFFFFFFFFFFFFFF15
:103CC000FFFFFFFFFFFFFFFFFFFFFFFFFFFFFFFF04
:103CD000FFFFFFFFFFFFFFFFFFFFFFFFFFFFFFFFF4
:103CE000FFFFFFFFFFFFFFFFFFFFFFFFFFFFFFFFE4
:103CF000FFFFFFFFFFFFBDBE532BD62BF63BD53397
:103D0000F6331734F633F633F633173C173CD63315
:103D1000173C173C384C962B35137A85FFF7FFF785
:103D2000FFFFDFFFFFFFFFFF9A855423952BB6238C
:103D30005744FFEFFFFFFFFFFFFFDFFFFFFF7EDFC7
:103D4000D53BD62B173C373CF63BF63B1734742B50
:103D50007CAEFFFFFFFFFFFFFFFFFFFFFFFFFFFF47
:103D6000FFFFFFFFFFFFFFFFFFFFFFFFFFFFFFFF63
:103D7000FFFFFFFFFFFFFFFFFFFFFFFFFFFFFFFF53
:103D8000FFFFFFFFFFFFFFFFFFFFFFFFFFFFFFFF43
:103D9000FFFFFFFFBFF7164C551BB53BF63BD63375
:103DA000D633F733D633D633F63BD633F63BD6335A
:103DB000D633D633B53B7523B98DFFFFFEFFFEFF2B
:103DC000FFF7FFFFFFFFFB9D1313B72BF6335423C1
:103DD000FDBEFFFFFFFFFFFFFFFFFFFFFFFF596D6E
:103DE000541B163CF733F73BF6331744163C951B30
:103DF0001644BFEFFFFFFFFFFFFFFFFFFFFFFFFFC7
:103E0000FFFFFFFFFFFFFFFFFFFFFFFFFFFFFFFFC2
:103E1000FFFFFFFFFFFFFFFFFFFFFFFFFFFFFFFFB2
:103E2000FFFFFFFFFFFFFFFFFFFFFFFFFFFFFFFFA2
:103E3000FFFFFFFFFC9DF31AF733D63B952BD63BD4
:103E4000D53BB62BD633D633F63B952BD633D6336C
:103E5000B633D633942B16341FC73EE7FFF7FEFF69
:103E6000FFFFFEFF5FDF5423961BF73B131319750B
:103E7000FEFFDFFFFFFFFFFFFFFFFFFFFCCE551B35
:103E8000F72BD53BF733D63BF63BF733F6331734F6
:103E90003423FB95FFFFFFFFFFFFFFFFFFFFFFFF47
:103EA000FFFFFFFFFFFFFFFFFFFFFFFFFFFFFFFF22
:103EB000FFFFFFFFFFFFFFFFFFFFFFFFFFFFFFFF12
:103EC000FFFFFFFFFFFFFFFFFFFFFFFFFFFFFFFF02
:103ED000FFFFDFF738445423752BB633B6339533E1
:103EE000B53BB633D6339533B633B633B633B63384
:103EF000D633B633752B552B9623933B165C7B85B7
:103F0000BFF7DFFFD86C141BF83B9523542B3ED72B
:103F1000FFFFFFFFFFFFFFFFFFFFDFFFF874151B31
:103F2000F733D633F633B633D533D62BF633D53312
:103F300075235744DFF7FFFFFEFFFFFFFFFFFFFF83
:103F4000FFFFFFFFFFFFFFFFFFFFFFFFFFFFFFFF81
:103F5000FFFFFFFFFFFFFFFFFFFFFFFFFFFFFFFF71
:103F6000FFFFFFFFFFFFFFFFFFFFFFFFFFFFFFFF61
:103F7000FFFF5EDF7623752B9533952BB633962B9B
:103F8000962B953B963395339533B63396339633CC
:103F9000B633F31AFA7C3BAE531B360B5623B41AD6
:103FA000F653FA95B533953396333413D964FFFF3E
:103FB000DFFFFFFFFFFFFFFFFFFF1DD73523962B1E
:103FC000B63BB633D53BB62BD633D633B533D63B1B
:103FD000952BB6231DD7FFFFFFFFFFFFFFFFFFFF5E
:103FE000FFFFFFFFFFFFFFFFFFFFFFFFFFFFFFFFE1
:103FF000FFFFFFFFFFFFFFFFFFFFFFFFFFFFFFFFD1
:10400000FFFFFFFFFFFFFFFFFFFFFFFFFFFFFFFFC0
:10401000FFFF7BBEF41A552B95339533752B9633E2
:10402000962B75339533B633953395339533B63335
:10403000542B34233CD7FFFFFECE752B1513B5331D
:10404000341B3413752B9533B633131B5DAEFFFF52
:10405000FFFFFFFFFFFFDEFFFFFF587DD412D63BBF
:10406000953BB62BB533B633962B9533B633963393
:10407000B53314135BB6FFF7FFFFFFFFFFFFFFFF32
:10408000FFFFFFFFFFFFFFFFFFFFFFFFFFFFFFFF40
:10409000FFFFFFFFFFFFFFFFFFFFFFFFFFFFFFFF30
:1040A000FFFFFFFFFFFFFFFFFFFFFFFFFFFFFFFF20
:1040B000FFF7F9ADF31A75339533752B95337433D8
:1040C0009533962B752B752B9533752B953395332F
:1040D000F31A9954FFFFFFFFFFFFDDCE3423552372
:1040E00075337533962B7533751B753B9FEFFFFF4B
:1040F000FFFFFFFFDFFFFFFFDEEFD53354239633D3
:104100009533B52BB62B95339533B633962BB73302
:104110009533151BB9A5FFF7FFFFFFFFFFFFFFFF5B
:10412000FFFFFFFFFFFFFFFFFFFFFFFFFFFFFFFF9F
:10413000FFFFFFFFFFFFFFFFFFFFFFFFFFFFFFFF8F
:10414000FFFFFFFFFFFFFFFFFFFFFFFFFFFFFFFF7F
:10415000FFF7FAADD31A7533952B742B5533763B95
:10416000752B742B74337633742B952B7433562B39
:10417000B2121CBEFFFFFEF7FFF7DFFFD995B32297
:10418000932B57337433963B92127964FFF7FDFFFC
:10419000FFFFFFFFFFFFFFFFFA9DF212962B753323
:1041A0007633943395339633953B9433B62BB52BB6
:1041B0009533F322D9A5FFF7FFFFFFFFFFFFFFFFB6
:1041C000FFFFDFFFFFFFFFFFFFFFFFFFFFFFFFFF1F
:1041D000FFFFFFFFFFFFFFFFFFFFFFFFFFFFFFFFEF
:1041E000FFFFFFFFFFFFFFFFFFFFFFFFFFFFFFFFDF
:1041F000FFFF9CBEB312542B542B542B7533352B1D
:10420000352B9433342B742B552B542B542B141BDC
:104210007433BFEFFFFFFEFFFFFFDFFFBFE7763323
:104220005423562B95333423931A5CAEFFFFFFFFC4
:10423000FFFFDFFFFFFFFFEF7443141BB63356335E
:104240007533742B9533752B9533542BB62B742BF8
:104250009533D4125BBEFFF7FFFFFFFFFFFFFFFFA9
:10426000FFFFFFFFFFFFFFFFFFFFFFFFFFFFFFFF5E
:10427000FFFFFFFFFFFFFFFFFFFFFFFFFFFFFFFF4E
:10428000FFFFFFFFFFFFFFFFFFFFFFFFFFFFFFFF3E
:10429000FFFF5EE73523F322352B352B5423352BD7
:1042A0003533542B352B532B552B542B752B910A0F
:1042B000D874FFFFFFFFFFFFBFFFFFFFFFF7763B55
:1042C000D31274335533F412D643FFF7DFFFDFFF09
:1042D000FFFFFFFFFFFF597D931275335533552BB9
:1042E000752B952B752B74337533762B752B743397
:1042F0003423562B5DDFFFFFDFFFFFFFFFFFFFFFD4
:10430000FFFFFFFFFFFFFFFFFFFFFFFFFFFFFFFFBD
:10431000FFFFFFFFFFFFFFFFFFFFFFFFFFFFFFFFAD
:10432000FFFFFFFFFFFFFFFFFFFFFFFFFFFFFFFF9D
:10433000FFFFFFF7165493121523342B3423542B0D
:104340003433142B552B132B342B352B352392124E
:104350003BB6FFFFFFFFDFFFFFFFFFFF9FDF1533D0
:10436000132333333523510A9BB6FFFFFFFFFFFFB3
:10437000FFFFFFFF1DC7D31A15235533342B742BB2
:10438000552B542B552B5433552B762B342B552B27
:10439000D31A1754FFF7FFFFFFFFFFFFFFFFFFFFD9
:1043A000FFFFFFFFFFFFFFFFFFFFFFFFFFFFFFFF1D
:1043B000FFFFFFFFFFFFFFFFFFFFFFFFFFFFFFFF0D
:1043C000FFFFFFFFFFFFFFFFFFFFFFFFFFFFFFFFFD
:1043D000FFFFFFFF3BAE110A1623332B332B1323B2
:1043E000142B142B132B142B132B3533D41AF32A21
:1043F0007EEFFFFFFFFFDFFFFEFFFFFF3CA6721A0D
:104400003323362B3202B774FEFFFFFFFFFFDFFFBF
:10441000DFFFFFF7B4439312352B342B542B542B6F
:104420003533552B342B342B552B142B3433762B1F
:104430007112FCA5FFFFFFFFFFFFFFFFFFFFFFFF64
:10444000FFFFFFFFFFFFFFFFFFFFFFFFFFFFFFFF7C
:10445000FFFFFFFFFFFFFFFFFFFFFFFFFFFFFFFF6C
:10446000FFFFFFFFFFFFFFFFFFFFFFFFFFFFFFFF5C
:10447000FFFFFFFFFFFFD553310A132B132B132B25
:10448000F322F42AF322142BF42A342B120AB774E1
:10449000FFFFDFFFFFFFFFFFFEFFBFF7333B73129E
:1044A000542374027443DFEFFFFFFFFFFFFFDFFFC2
:1044B000FFFF75643102152B142B332B332B142B78
:1044C000142B152B342B342B342B142B352B72122D
:1044D000D453FFF7FFFFFFFFFFFFFFFFFFFFFFFFCB
:1044E000FFFFFFFFFFFFFFFFFFFFFFFFFFFFFFFFDC
:1044F000FFFFFFFFFFFFFFFFFFFFFFFFFFFFFFFFCC
:10450000FFFFFFFFFFFFFFFFFFFFFFFFFFFFFFFFBB
:10451000FFFFFFFFFFFFFECE7022B21AD32214333B
:10452000D3221323142BF322F32AB212B2223FDF39
:10453000FFFFFFFFFFFFFFFFFFF7776C110A162B4E
:10454000100A53335FE7FFFFDFFFFFFFFFFFDFF7D7
:10455000566430021523142BF42A1323132B15331E
:10456000342B142B342B142B132B342BD41A9122D1
:10457000BDC6FFFFFFFFFFFFFFFFFFFFFFFFFFFFC6
:10458000FFFFFFFFFFFFFFFFFFFFFFFFFFFFFFFF3B
:10459000FFFFFFFFFFFFFFFFFFFFFFFFFFFFFFFF2B
:1045A000FFFFFFFFFFFFFFFFFFFFFFFFFFFFFFFF1B
:1045B000FFFFFFFFFFFFFFFFFCA51102B31AD32A85
:1045C000F42AF222D422F322F22A1102597DFFFFAB
:1045D000FFFFFEFFDFFFFFFFD7841202B51A1102B3
:1045E00075539FE7FEFFDFFFFEFFFFFFDCD693431F
:1045F00010021523142BD42A14231423F332D32AA4
:10460000F422322BF42AF32A132BF41A3202DC9D03
:10461000FFFFFEFFFFFFFFFFFFFFFFFFFFFFFFFFAB
:10462000FFFFFFFFFFFFFFFFFFFFFFFFFFFFFFFF9A
:10463000FFFFFFFFFFFFFFFFFFFFFFFFFFFFFFFF8A
:10464000FFFFFFFFFFFFFFFFFFFFFFFFFFFFFFFF7A
:10465000FFFFFFFFFFFFFFFFFFFF3A95CF09931218
:10466000D322B32AB332D422120A744BFFF7FFFFCE
:10467000DFFFFDFFBFF7576CB001D101521AB784BD
:10468000FFFFFFFFFFFFFFFF5FDFD97C511A320AF8
:10469000F42AD32AD322F42AD322D32AF32AD222E9
:1046A000F32AF42AF32AF322B31A300A3A8DFFFFD1
:1046B000FEFFFFF7FFFFFFFFFFFFFFFFFFFFFFFF13
:1046C000FFFFFFFFFFFFFFFFFFFFFFFFFFFFFFFFFA
:1046D000FFFFFFFFFFFFFFFFFFFFFFFFFFFFFFFFEA
:1046E000FFFFFFFFFFFFFFFFFFFFFFFFFFFFFFFFDA
:1046F000FFFFFFFFFFFFFFFFDFFFFFFFBA9DF0118E
:10470000F209D422D31A721291227FDFFFFFFFFF3A
:10471000FFEFDA9DB4226F011333F8845FE7FFFFE8
:10472000FFFFBFE79DBE9774B222110A721AD32A07
:10473000F322F31AF32AD322D322D422D422D4226E
:10474000F42AD3221323530A1112BB9DFFFFFEFF4D
:10475000FFFFFFFFFFFFFFFFFFFFFFFFFFFFFFFF69
:10476000FFFFFFFFFFFFFFFFFFFFFFFFFFFFFFFF59
:10477000FFFFFFFFFFFFFFFFFFFFFFFFFFFFFFFF49
:10478000FFFFFFFFFFFFFFFFFFFFFFFFFFFFFFFF39
:10479000FFFFFFFFFFFFFFFFFFFFFEFFFFFF9DC6C5
:1047A000B22AD10171125122BBA5DFFF9CCE188520
:1047B000B44BD22AD34BB9959CBE7FDFDCCE389563
:1047C000376435331012F1097212D422D322D42A5D
:1047D000B422B4229422B422D42AB322B222F32ADD
:1047E000D422931AD101F232BDBEFFFFDEFFFFFFDC
:1047F000FFFFDFFFFFFFFFFFFFFFFFFFFFFFFFFFE9
:10480000FFFFFFFFFFFFFFFFFFFFFFFFFFFFFFFFB8
:10481000FFFFFFFFFFFFFFFFFFFFFFFFFFFFFFFFA8
:10482000FFFFFFFFFFFFFFFFFFFFFFFFFFFFFFFF98
:10483000FFFFFFFFDFFFFFFFFFFFFFFFFFFFFEFFA9
:10484000DFE79874F209D101B64312333212D20174
:10485000310A3433944B944BF43A53221212110A16
:10486000110A500AD312D222B222B222D31AD41A77
:10487000B222B22AD22A92229322D422D3225212D4
:10488000D009331AB87CBFEFFFFFDEFFFFFFFFFF49
:10489000FFFFFFFFFFFFFFFFFFFFFFFFFFFFFFFF28
:1048A000FFFFFFFFFFFFFFFFFFFFFFFFFFFFFFFF18
:1048B000FFFFFFFFFFFFFFFFFFFFFFFFFFFFFFFF08
:1048C000FFFFFFFFFFFFFFFFFFFFFFFFFFFFFFFFF8
:1048D000FFFFFFFFFFFFFFFFFFFFFFF7FFFFFFFFF0
:1048E000FFFFFFFFDDCE166C6F092F01D1017312A0
:1048F0009322321A3312110A72125212D31A721AF6
:104900009422922A73227322932273229322932257
:104910007322B3229222D322931A120A91015122B6
:10492000566CDDCEFFFFDFFFDFFFFFFFDEF7FFFF8F
:10493000FFFFFFFFFFFFFFFFFFFFFFFFFFFFFFFF87
:10494000FFFFFFFFFFFFFFFFFFFFFFFFFFFFFFFF77
:10495000FFFFFFFFFFFFFFFFFFFFFFFFFFFFFFFF67
:10496000FFFFFFFFFFFFFFFFFFFFFFFFFFFFFFFF57
:10497000FFFFFFFFFEFFFFFFFFFFFFFFFFFFDFFF68
:10498000FFFFFEFFFFFFFFF73ED7D77C333BD00191
:104990009101B1013212521A721A721A721AB322AA
:1049A00072229222932A72229322922271227222DE
:1049B000521A120AF001B001D1111443D7841DD745
:1049C000FFFFFFFFFFFFFFFFFFFFDEFFFFFFFFFF18
:1049D000FFFFFEFFFFFFFFFFFFFFFFFFFFFFFFFFE8
:1049E000FFFFFFFFFFFFFFFFFFFFFFFFFFFFFFFFD7
:1049F000FFFFFFFFFFFFFFFFFFFFFFFFFFFFFFFFC7
:104A0000FFFFFFFFFFFFFFFFFFFFFFFFFFFFFFFFB6
:104A1000FFFFFFFFFFFFFFFFFFFFDFFFFFFFFFFFC6
:104A2000FFFFFFFFDFFFFFFFFEF7FFFFFFFF7BC67C
:104A3000F88C945B922A11128F01900191019101DF
:104A400091019101B001D001B0019001B101B0011B
:104A50001112D32AB653F97CBCBEFFF7FFFFFFFF4C
:104A6000FFFFFFFFFFFFFFFFFFFFFFFFDFFFFFFF76
:104A7000FFFFFFFFFFFFFFFFFFFFFFFFFFFFFFFF46
:104A8000FFFFFFFFFFFFFFFFFFFFFFFFFFFFFFFF36
:104A9000FFFFFFFFFFFFFFFFFFFFFFFFFFFFFFFF26
:104AA000FFFFFFFFFFFFFFFFFFFFFFFFFFFFFFFF16
:104AB000FFFFFFFFDFFFFFFFFFFFFFFFFFFFFFFF26
:104AC000FFFFFFFFFFFFFFFFFFFFDFFFDFFFFFFF36
:104AD000FFFFFFFF9EF77CC6DAAD388D987C576CE0
:104AE000F55BD64B9553D65B376C9774398DDAA549
:104AF000BCCE9EE7FFFFFFFFDFFFFFFFFFFFFFFFD3
:104B0000FFFFFFFFFFFFFFFFFFFFFFFFFFFFFFFFB5
:104B1000FFFFFFFFFFFFFFFFFFFFFFFFFFFFFFFFA5
:104B2000FFFFFFFFFFFFFFFFFFFFFFFFFFFFFFFF95
:104B3000FFFFFFFFFFFFFFFFFFFFFFFFFFFFFFFF85
:10503000FFFFFFFFFFFFFFFFDEFFFFFFFEFFFFFFA2
:10504000FFFFDFFFFEFFFFFFFFFFDFFFFFF7FFFFB9
:10505000DFFFFEF7FEFFFEFFDEFFFFFFFFFFFEFFAD
:10506000FEF7FFFFFFFFBEFFFFFFFFF7FEFFDFFFC3
:10507000FEFFFFFFFFFFFFFFFFFFFFFFFFFFFFFF41
:10508000DEFFFFF7FFFFDFFFFFFFFFFFFFFFFFFF79
:10509000DFFFFFFFFFFFFEFFFFFFFFF7FEFFFFFF4A
:1050A000FFFFFFFFDFFFFDFFFFF7FEFFDFFFFFFF5B
:1050B000DEFFFFFFFFFFFEFFFEFFFFFFDFFFDFFF63
:1050C000FFFFFEF7FFFFFFFFFEFFDFFFFFFFFEFF1B
:1050D000FFFFFFFF5EDF9864F7533854374CB84347
:1050E00098647BCE174CDC9DDFFFFFF7DFFFDDB65A
:1050F00098431AAEFFFFDFFFFFFF5A7D974B9EBE1E
:10510000FFF7FFFFFFF7FFFFFFFFFFF7FFFFFFFFC7
:105110005DDFB96C975C1654385C1754F5537DA667
:10512000FFFF9C9D585CBEF7FFF7F87CF84B184CCE
:10513000165CD75396439CC67FDF576CF853F84BE9
:10514000F853385C7FD7BDBE1754FDD6FFFFFEFF76
:10515000FFFFFFFFFFFFFFF71A6DD84BFEC6FFFFF3
:10516000FFFF7FE7175CFA74DFFFFFFFFFFF9FEF92
:10517000D64B1985752BB31A7B8D3A95598D5B8D5E
:10518000BB959FE7F64BB401FDCEFEFFDEF7B41AE8
:10519000541A5FDFDFFFFFFFFDDE53029301185C4F
:1051A000FFFFFEFFDFFFDFFFDFFFFFFFFEFFFFFF71
:1051B000DDCED401973B7A8D7A859B8D17541302EF
:1051C000FDCED874F401DFEF7A851102FA749B8D5D
:1051D000BA859A8D5B85BDC6773394227B8D9A8D77
:1051E000998D161BB643FA7C12025CB6FFFFFFFFD7
:1051F000FFFFFFFFFEFFFDC6320A7101986CFFFF43
:10520000FFFFFFFF1A855201DC95FFFFFFFF365CB1
:1052100093019DB69502BA6CFFFFFFFFFFFFFFFFF2
:10522000FFFFFFFFDFF7B522362BDEF7D964F2016F
:105230003FDFFFF7FFFFFFFF1A7D16131744940AA5
:105240001DD7DFFFFEFFFFFFFFFFDFFFFFFFFFFFB9
:105250001DD755027B85FFFFFFFFFFFF9DBED301DA
:105260001CB6797DD41A7DE71754F622FFF7FFFFAD
:10527000FFFFFEFFFFFF5EE79402DA74FFFFFFFF10
:10528000DFFF1985D522DA74B50ABDBEDFFFFFFF47
:10529000FFFFFEFFFFFF9764F722D74BD6229FE761
:1052A000FFFFFFFFFFFFF8633402BFE75DBE92011F
:1052B000FC9DFFFFF522D7533BBE5CBE5CAE1CAE2F
:1052C000DDCEDEFFFFFFDDC67402F54B76027B9577
:1052D000FEFFFFF7FFF7FFF7B52259649FD7530290
:1052E0003A7DFFFF7DE77A95DB95FB9DFA95BB9DA7
:1052F0001CAEB50A397DFFFFFFFFFFFF5AB614024F
:105300005DBE3A7D940ADFF73A8D1302397D9AA586
:105310005B959A8D1DE7BFEFB202D86CFEFFFFFFD1
:10532000FFFFF9743623B86CD4129DC6DFFFFFFF70
:10533000FFFFFFFF7FE794121A851DCFF201DB9577
:10534000FFFFFFFFFEFF9FF7F412973BB5223844A3
:10535000FEFFFFFF5523562BD5439733B733D52A8E
:10536000D87CFFFFFFFFFFFF7A85D201395CFFFF8A
:10537000FFFFFFFFFFFF1BB61202BDC6FFF7174C72
:10538000F72AFFFF3ED7B64BB73BF84BD843D8536D
:105390005B8D161B5A7DDFFFFEFFFFFF3CA635022B
:1053A0007CBE397DB4127EE7FFF73975F643F64BC4
:1053B0003854762BF4323BA6762B9964FFF7DEEF58
:1053C000FFFF7864F41A1975B40ABCBEDFFFFFFF53
:1053D000FFFFFFFFBB9514021ED7FFFF762B96330E
:1053E000FFFFFEFFFFFFFFFF9BBE3502161BDEEF38
:1053F000FFFFFFFFD50A7864FFF7FFF7DFEFDFFF5E
:10540000DFFFFFFFFEFFFFFFFECE120ABBA5FEFF80
:10541000DFFFFFFFDEFF5964740277649864B63BD8
:1054200015029BBEFFFFDFFFFFFFDEFFFFFFFFFF59
:10543000FDD6530A3785FFFFFFFFFFFF9CAE140226
:105440007BBE398595121ED7FEFFFFFFFFFFFFFFD2
:10545000FEFFFDD65602B96C174CD522D743B53B9B
:10546000B943B51A7B8DFC95740ADDBEFFFFFFFFC3
:10547000FFFFFFFF164C940A7764B974962B9502D0
:10548000DECEFFFFFFFFFFFFFFF7152B5854FEFF97
:10549000BFFFFFFF55025864FFFFFFFFFFFFDFFF65
:1054A000FFFFFEFFFFFFFEFF9DBE35027C95FEFF66
:1054B000FFFFFFFF5DE7B612184C197D397D3A8575
:1054C000B50A7964FFFFFFFFFEFFFFFFFFFFFFFF4D
:1054D0001DCF34025A85FFFFDFFFFFFF59AED40115
:1054E0001CBE1A8595025EE7DEFFFFFFFFFFFFFF90
:1054F000FFFFFFD6320AF964963318547CB67CBE9F
:105500001CAEDDC6FFFF7995B401DDC6FEFFFFFFCF
:10551000FFFFDDD6950A784C1A85FA841985550265
:10552000D884FFFFFFFFFEFF9FE714233854FFFFDF
:10553000FEFFFFFF786C941AF83B1854D74BD64304
:10554000D54B5FDFFFFFFFFF3EB690013B7DFFFFC6
:10555000DFFFFFFFF8649209BCCEFFFFDFFFFEFF15
:105560007864B3011DD7FFFFFFFFFFFFFFFFFFFFC1
:10557000BEC6330A3623375416445854F72215331F
:105580007FDFB86C12021EC7D87CB7435744574C14
:10559000185C753314231BA6951A385CFEFFFFFFB9
:1055A000FFFFFFFFFFFFBDC6B322562B5954553BEB
:1055B000DD9D9974D2011EDFFFFFFFFFFEF7F74B61
:1055C00013029FE7FFFFFFFF7DE77312983BFFF792
:1055D000FFFFFFFFFFF73BA67A8D5B955B953B8551
:1055E0009A9D9EEFFFFFFFFF7FE77A953ECFDFFF9B
:1055F000DFFFFFFF5BAEBC9DFFF7FFFFFFFFFEFF7E
:105600003ED75A9D1DDFFFFFFFFFFFFFFEFFFEFF9E
:10561000BFEFFCA5FB9D5A8D998D398D9B9D5DDF5C
:10562000FFFF7BC6FDA59EE7FAAD1A8D798D7A8DB9
:105630003B8D7C855ED7FFFFBAA59BBEFFFFFFFFBA
:10564000FEFFDFFFBEFFFFFF3FD779957A8D5B8DB1
:105650005CB65CAE3CB6FFFFFFFFFFFFFFFFDFC69F
:105660009C955CE7FFFFFFFFDEFFDB9D7EB6FFFF43
:10567000FFFFFFFFDFFFFFFFFFF7FFFFFFFFFFF76A
:10568000FFFFFFFFFFFFFFFFFFFFFFFFFFFFDEFF4B
:10569000FFFFFFFFDFFFFFFFFFFFFEFFFFFFDEFF5C
:1056A000FFFFFFFFFFFFFFFFFFFFFFFFFFFFFFFF0A
:1056B000FFFFFFFFDFFFFFFFDEFFFFFFFFFFFFFF3B
:1056C000FEFFFFFFFFFFFEFFFFFFFFFFFEFFFFFFED
:1056D000FFFFFFF7FEFFFFFFFFFFFFFFFFFFFFFFE3
:1056E000FFFFFFFFDFFFFFFFDFFFFFFFFFF7FFFF12
:1056F000FFFFFFFFDEFFFFFFFFFFFFFFFFFFFFFFDB
:10570000FFFFFFFFFEFFFFFFFFFFFFFFFFFFFEFFAB
:10571000FFFFFEFFDFFFFFFFFFFFFFFFFEFFFEFFBC
:10572000FFFFFEFFFFFFFFFFFFFFFFFFDFFFDFFFCA
:10573000FFFFFFFFDFFFFFFFDEFFFFFFFFFFFFFFBA
:10574000FFFFFFFFFFFFFFFFFFFFFFFFFFFFFFFF69
:10575000DFFFDFFFFFFFFFFFFFFFFFFFFFFFFFFF99
:10576000FFFFFFFFFFFFFFFFFFFFFFFFFFFFDFFF69
:10577000DFFFFFFFFFFFFFFFDFFFDFFFFFFFFEFF9A
:10578000FFFFFFFFFFFFFFFFFFFFFFFFFFFFFFFF29
:10579000FFFFDFFFFEFFFFFFFFFFFFFFFFFFFEF743
:1057A000FEFFFFFFFFFFFFFFFFFFFFFFFFFFFFFF0A
:1057B000FFFFFFFFFFFFDFFFFFFFFFFFFFFFFFFF19
:1057C000DEFFFFFFFFFFFFFFFFFFFFFFFFFFFFFF0A
:1057D000FFFFFFFFFFFFFFFFFFFFFFFFDFFFFFFFF9
:1057E000FFFFFFFFFFFFFFFFFFFFFFFFFFFFFFFFC9
:1057F000FFFFFFFFFFFFFFFFFFFFFFFFFFFFFFFFB9
:10580000FFFFFFFFFFFFFEFFFEFFFFFFFFF7FFFFB2
:10581000FFFFFFF7FFFFFFFFFFFFFFFFFFFFFFFFA0
:10582000FFFFFFFFFFFFFFFFFFFFFFFFFFFFDFFFA8
:10583000FFFFFFFFFFF7FFFFFFFFFFFFFFFFFFFF80
:10584000FFFFDFFFFFFFFFFFFFFFFFFFFFFFFFFF88
:10585000FFFFFFFFFFFFFFFFFFFFFFFFFEFFFFFF59
:10586000FFFFFFFFFFFFFFFFFFFFFFFFFFFFFFFF48
:10587000FFFFFFFFFFFFDFFFFFFFFFFFFFFFFEFF59
:10588000FEFFFEFFFFFFFFFFFFFFFFFFFFFFFFFF2A
:10589000FFFFFFFFFEFFDFFFFFFFFEFFFFFFFFFF3A
:1058A000FEFFFFFFBFFFDFFFDFFFFFFFFFF7FFFF91
:1058B000FFFFFFFFFFFFFEFFFFFFFFFFFFFFFFFFF9
:1058C000BFFFFFFFDFFFFFFFFFFFFFFFFFFFFFFF48
:1058D000FFFFFFFFFFF7FFFFFFFFFFFFFFFFFFFFE0
:1058E000FFFFFFFFFFFFFFFFFFFFFFFFFFFFFFFFC8
:1058F000FFFFFFFFFFFFFFFFFFFFFFFFFFFFFFFFB8
:10590000FFFFFFFFFFFFFFFFFFFFFEFFFFFFFFFFA8
:10591000FFFFFFFFFFFFDFFFFFFFDFFFFFFFFFF7DF
:10592000FFFFFFFFFEFFFFF7BFEFFFFFDFFFDFFF20
:10593000DFFFFFFFFFFFFFFFFFFF7ED7FCD65FEF1C
:10594000FFF71EDF5EE7DFEF7EEFDDD6BFF7FEFF7E
:10595000DFFFFFFFFFFFFFEF9EEFFFFFDFF79FFF80
:10596000FFFFDFFFDFF7FFFFFFFFFFFFFEFFFFFF90
:10597000FFFFFFF7FEFFFFFFFFFFFFFFFFFFDFFF60
:10598000DFFFFFFFFFFFFFFFFFFFFFFFFFFFFFFF47
:10599000FFFFFFFFFEFFFFFFFFFFFFFFFFFFFFFF18
:1059A000FFFFFFFFFFFFDFFFFFFFFFFFFFFFFFFF27
:1059B000DEFFFFFFFFFFFFFFFFFFFFFFDFF7F9A5A0
:1059C000FBADDB9D3CAE585CB63B1C9E1BA6FC9D14
:1059D0001BA6BEDFFFFFDFFFDDFF5CAE3A8557741D
:1059E000B7437A85FB7CB53BD96C1A85FDD6FFFFA2
:1059F000FFF7FEFF3FDF57543A8DFB9D785CFCA517
:105A00007BA6174CB64BBDBE1ED7FFFFDEFFFFFFC8
:105A1000FEFFFFFFFFFFFFFFFFFFFFFFFFF7FFFF9F
:105A2000FFFFFFFFFFFFDFFFFFFFFFFFFFFFFFFFA6
:105A3000FFFFFFFFFFFFFFFFFFFFFFFFFFFFFFFF76
:105A4000FFFFFFFFFFFFFFFFFFFFFFFFFFFFFFFF66
:105A5000FFFFFFFFFFFFFFFFDFFFFEFFFFFF1BBE9C
:105A60001B96986C740ADDB57CCE362B5833DA9DC4
:105A7000DBA5BDEFFFFFFFF7FFF7DFFFFEFF798537
:105A80009412FFFF7DE755029AAEFFFFFFFFDFFF95
:105A9000FFFFFFFFBCCEBB951CAE9733F643D86C1F
:105AA000F63B595C1CA6F4221A75FFFFFFFFDFFFCF
:105AB000DFFFFFFFFFFFFFFFFFFFFFFFFFFFFFFF16
:105AC000FFFFFFFFFFFFFFFFFFFFFFFFFFFFFFFFE6
:105AD000FFFFFFFFFFFFFFFFFFFFFFFFFFFFFFFFD6
:105AE000FFFFFFFFFFFFFFFFFFFFFFFFFFFFFFFFC6
:105AF000FFFFFFFFFFFFFFFFFFFFFFFFFFFF1FCFC6
:105B000038545A8D952BFEF7FFFF575CDA64986C7A
:105B10009995FFFFFFFFBEFFFFFF597DBA8D1CAEB9
:105B2000352BFEFF7EF7F62A9CC61A85BC95FFFF33
:105B3000FEFFFFFF9FE7F774FBB5BCA53A5C7A85D3
:105B40009BAD7A9D9DBEB63B7B8DFFFFFFF7FEFFB1
:105B5000FFFFFFFFFFFFFFFFFFFFFFFFFFFFFFFF55
:105B6000FFFFFFFFFFFFFFFFFFFFFFFFFFFFFFFF45
:105B7000FFFFFFFFFFFFFFFFFFFFFFFFFFFFFFFF35
:105B8000FFFFFFFFFFFFFFFFFFFFFFFFFFFFFFFF25
:105B9000FFFFFFFFFFFFFFFFFFFFFFFFDFFF1BAE6A
:105BA00035337B9576237EEFFDFF3854D95C364C38
:105BB000595CDFFFFFFFFFFFFFFF7B8DB6221B7DE0
:105BC0009533FFFFBEDF583B3A8575123AA6DFFFDB
:105BD000DFFFFFFF9CC6F522BCB63A8D56547A8D86
:105BE000FFFF5CBE941A552B5DB6DFFFFFFFFFFF82
:105BF000DFFFFFFFFFFFFFFFFFFFFFFFFFFFFFFFD5
:105C0000FFFFFFFFFFFFFFFFFFFFFFFFFFFFFFFFA4
:105C1000FFFFFFFFFFFFFFFFFFFFFFFFFFFFFFFF94
:105C2000FFFFFFFFFFFFFFFFFFFFFFFFFFFFFFFF84
:105C3000FFFFFFFFFEFFFFFFFFFFFFFFFFFFBB9523
:105C4000B7431CAE162B9FF7FFFFF953B96C986C46
:105C50001854FFFFDFFFFFFFFFFFFFF73433B512DC
:105C6000D743FFFF9EE7973BD512B843DFF7FFFF0F
:105C7000FFFFFEFFDFFFF63BDA8DB843F64B7B8D6F
:105C8000DB95FFF7384C762BFFFFFFFFFFFFFFFF91
:105C9000FFFFFFFFFFFFFFFFFFFFFFFFFFFFFFFF14
:105CA000FFFFFFFFFFFFFFFFFFFFFFFFFFFFFFFF04
:105CB000FFFFFFFFFFFFFFFFFFFFFFFFFFFFFFFFF4
:105CC000FFFFFFFFFFFFFFFFFFFFFFFFFFFFFFFFE4
:105CD000FFFFFFFFFFFFFFFFFFFFFEFFFFFF9764D8
:105CE000953B7CBE161B7DE7FFFF375CFA7CF874A2
:105CF000142BFFF7FFFFFEFFFFFFFFFF9A95530AEC
:105D0000D733FEFF9FF7772B9212FAA5FFFFFFF71D
:105D1000FFFFFFF7BFFFD743BC9D7A85D8533B7D7C
:105D2000175CBFF7B964371BFFFFFFFFFFFFFFFFE3
:105D3000FFF7DFFFFFFFFFFFFFFFFFFFFFFFFFFF9B
:105D4000FFFFFFFFFFFFFFFFFFFFFFFFFFFFFFFF63
:105D5000FFFFFFFFFFFFFFFFFFFFFFFFFFFFFFFF53
:105D6000FFFFFFFFFFFFFFFFFFFFFFFFFFFFFFFF43
:105D7000FFFFFFFFFFFFDEFFFFFFFFFFFFFFFAA5B3
:105D80007CA61A7D5533FFFFFFFF374C97641DBF7C
:105D90005B8DFFFFDFFFFFFFFDFFFFFFFFEF9C9528
:105DA000F51AFFFFFFF7941A7CBEFFF7FFFFBEFF57
:105DB000BEFFFFFF9FFF3844B974DCA5DA74D653E9
:105DC0009A9D5BAE983BB3123CB6FFFFDFFFDFFF4F
:105DD000DFFFFFFFFFFFFFFFFFFFFFFFFFFFFFFFF3
:105DE000FFFFFFFFFFFFFFFFFFFFFFFFFFFFFFFFC3
:105DF000FFFFFFFFFFFFFFFFFFFFFFFFFFFFFFFFB3
:105E0000FFFFFFFFFFFFFFFFFFFFFFFFFFFFFFFFA2
:105E1000FFFFFFFFFFFFFFFFDFF7FFF7FFFFFFFFC2
:105E2000FFF7F422BB9DBFFF3995562B986CFFFFFF
:105E3000FFFFDFFFFFF7FEF7FEF79B957B7D976C7B
:105E400036235A8D1A85381BD97C597DFCA5FFFF56
:105E5000FFFFFFFFDFF7364CB9749A7DD864FA7400
:105E6000BA959633B67CBC8DB54BDFFFFEFFFFF7CE
:105E7000DFFFFFFFFFFFFFFFFFFFFFFFFFFFFFFF52
:105E8000FFFFFFFFFFFFFFFFFFFFFFFFFFFFFFFF22
:105E9000FFFFFFFF508158816081688170810000A1
:105EA00000000000000001020304060708090000CA
:105EB0000000010203040000D85E0008000000207A
:105EC0007000000018260008485F000870000020DD
:105ED000F00400002826000800000000FFFF00007A
:105EE00000000000212400084D24000800000000EC
:105EF00000000000000000000000000000000000A2
:105F00000000000000000000000000000000000091
:105F1000000000000000C800280028001801C80088
:105F2000280028000000180128002800C8001801D7
:105F30002800280001000000100000000000000000
:085F40000024F4000000000041
:040000050800018965
:00000001FF
