:020000040800F2
:10000000A80201209D010008E3270008C520000880
:10001000E1270008A3030008232D000800000000CA
:10002000000000000000000000000000A1290008FE
:100030007106000800000000E5270008A329000859
:10004000B7010008B7010008B7010008B7010008B0
:10005000B7010008B7010008B7010008B7010008A0
:10006000B7010008B7010008B7010008B701000890
:10007000B7010008B7010008B7010008B701000880
:10008000B7010008B7010008B7010008B701000870
:10009000B7010008B7010008B7010008B701000860
:1000A000B7010008B7010008B7010008B701000850
:1000B000B7010008B7010008B7010008B701000840
:1000C000B7010008B7010008B7010008B701000830
:1000D000B7010008B7010008B7010008B701000820
:1000E000B7010008B7010008B7010008B701000810
:1000F000B7010008B7010008B7010008B701000800
:10010000B7010008B7010008B7010008B7010008EF
:10011000B7010008B7010008B7010008492A000824
:10012000B7010008B7010008B7010008C1050008C1
:10013000B7010008B7010008B7010008B7010008BF
:10014000B7010008B7010008B7010008B7010008AF
:10015000B7010008B7010008B7010008B70100089F
:10016000B7010008B7010008B7010008B70100088F
:10017000B7010008B7010008B7010008000000003F
:10018000B7010008B7010008DFF80CD000F0CCF888
:10019000004800475D1C0208A8020120064880476D
:1001A00006480047FEE7FEE7FEE7FEE7FEE7FEE75C
:1001B000FEE7FEE7FEE7FEE7392A000889010008AE
:1001C0002DE9F05F0546002092469B46884606468C
:1001D000814640241BE0284641464746224600F01F
:1001E00092F853465A46C01A914110D31146184608
:1001F000224600F079F82D1A67EB01084F46224697
:100200000120002100F070F817EB00094E41201E7C
:10021000A4F10104DFDC484631462A464346BDE8E6
:10022000F09F00000649074A0868504343F239022C
:10023000104408604008704701490860704700009A
:10024000C40200206D4EC64110B5431A934209D234
:100250008318881803E010F8011D03F8011D521ED1
:10026000F9D210BD40EA01039B0703D009E008C999
:10027000121F08C0042AFAD203E011F8013B00F86B
:10028000013B521EF9D210BDD2B201E000F8012BA1
:10029000491EFBD270470022F6E710B513460A4606
:1002A00004461946FFF7F0FF204610BD421C10F827
:1002B000011B0029FBD1801A704710B5002200E015
:1002C000521C835C8C5CA34201D1002BF8D1D8B2C4
:1002D000E1B2401A10BD034611F8012B00F8012BC2
:1002E000002AF9D118467047202A04DB203A00FA88
:1002F00002F1002070479140C2F1200320FA03F37D
:10030000194390407047202A04DB203A21FA02F07A
:100310000021704721FA02F3D040C2F1200291403F
:100320000843194670470000064C074D06E0E06898
:1003300040F0010394E8070098471034AC42F6D32C
:10034000FFF726FF305103085051030870B58C1891
:1003500010F8015B15F0070301D110F8013B2A11D9
:1003600006D110F8012B03E010F8016B01F8016BC6
:100370005B1EF9D12B0705D40023521E0DD401F8C2
:10038000013BFAE710F8013BCB1A921C03E013F88B
:10039000015B01F8015B521EF9D5A142D8D30020C0
:1003A00070BDFEE710B50E4C00220221204600F081
:1003B000D0FE00220421204600F0CBFE0A2006F0E9
:1003C000CBFB01220221204600F0C3FE0A2006F0EA
:1003D000C3FB20460022BDE81040022100F0B9BE58
:1003E0000000024010B50E4C00220221204600F011
:1003F000B0FE01220421204600F0ABFE0A2006F0E8
:10040000ABFB01220221204600F0A3FE0A2006F0E9
:10041000A3FB20460022BDE81040022100F099BE57
:10042000000002402DE9F041194E07460024012248
:100430000421304600F08DFE0025002202213046C6
:1004400000F087FE0A2006F087FB012202213046D9
:1004500000F07FFE0A2006F07FFB6006040E0421F8
:10046000304600F071FE012801D1641CE4B20A207C
:1004700006F072FB6D1CEDB2082DDED327B1FFF73D
:1004800091FF2046BDE8F081FFF7ACFFF9E70000DF
:100490000000024070B5134E05460022022130468E
:1004A00000F057FE0024EA090421304600F051FE16
:1004B0006806050E0A2006F04FFB01220221304695
:1004C00000F047FE0A2006F047FB002202213046DA
:1004D00000F03FFE0A2006F03FFB641CE4B2082C4B
:1004E000E1D370BD0000024010B50E4C0122042182
:1004F000204600F02EFE01220221204600F029FEB7
:100500000A2006F029FB00220421204600F021FEEB
:100510000A2006F021FB20460022BDE810400221FF
:1005200000F017BE0000024010B50E4C0022022160
:10053000204600F00EFE00220421204600F009FEB5
:100540000A2006F009FB01220221204600F001FEEC
:100550000A2006F001FB20460122BDE810400421DC
:1005600000F0F7BD0000024070B5144D00240122D8
:100570000421284600F0EDFD0A2006F0EDFA0122E4
:100580000221284600F0E5FD0A2006F0E5FA07E022
:10059000641CE4B2FA2C03D9FFF7C6FF012070BD3A
:1005A0000421284600F0D0FD0128F1D000220221CC
:1005B000284600F0CEFD002070BD00000000024083
:1005C000014800F045BB00003003002001681823FB
:1005D000CAB2103AB2FBF3F2054B6FF30901032ADA
:1005E0009B5CC36500D9091D816508467047000002
:1005F000768C020810B5014600208B698A6A4FF09C
:10060000C07453B1B3F5005F15D072B1012A0CD09C
:10061000022A0AD0032A09D104E01AB1012A06D01D
:10062000022A03D1C96AC90100D5012010BDC96AD7
:10063000A142FAD010BD002AF7D0012AF2D0022A36
:10064000F3D0032AF3D010BD30B50468256825F433
:1006500080252560046863608368402B036803D0AD
:1006600099600068C26030BD9A600068C16030BDAA
:10067000704772B6FEE7000070B588B0142103A879
:10068000FFF709FE43480024016841F004010160BE
:100690000068022500F0040000900120CDE903501D
:1006A0003D4E03A93046CDE9054500F055FC3BA081
:1006B00002F038FB01220221304600F04AFD0122FF
:1006C0001146304600F045FD00220121304600F081
:1006D00040FD0A2000F02EFC01221146304600F0B9
:1006E00038FD0A2000F026FC03A93046CDE9044578
:1006F00000F032FC2FA002F015FB642000F01AFC81
:10070000042201A948F2401000F0A2F88DF8084038
:1007100001A92EA002F006FB9DF8070000909DF8AD
:1007200006309DF805209DF804102BA002F0FAFA7F
:1007300032A101A8FFF7C1FD10B1012008B070BDC2
:100740008DF8045048F24005012201A9284600F026
:1007500071F92BA002F0E6FA012201A9E81D00F0D0
:1007600077F82CA002F0DEFA9DF80410602902D27E
:100770002DA002F0D7FA0A2000F0DCFB8DF804402F
:10078000012201A9284600F055F92CA002F0CAFA6E
:100790000020D3E7303802400008024047545F4948
:1007A0004E54206F75745F707020696E69742021DB
:1007B0000D0A000047545F494E5420696E707574ED
:1007C00020696E697420210D0A00000043545020F6
:1007D00049443A25730D0A004354502049442042AD
:1007E000797465733A2025303258202530325820EC
:1007F0002530325820253032580D0A003931310069
:1008000047543931315F57525F52656731210D0AC4
:100810000000000047543931315F44525F52656730
:1008200031210D0A0000000044656661756C74207A
:100830005665723A25640D0A0000000047543931AC
:10084000315F57525F52656732210D0A0000000088
:100850002DE9F04115460E460446FFF745FE2820D7
:10086000FFF718FEFFF780FE200AFFF713FEFFF7E1
:100870007BFEE0B2FFF70EFEFFF776FEFFF734FED9
:100880002920FFF707FEFFF76FFE00246F1E09E027
:10089000BC4201D0012000E00020FFF7C3FD30552D
:1008A000641CE4B2AC42F3D3BDE8F041FFF73CBEB8
:1008B0002DE9F14F574E00244FF00A0A307884B0EA
:1008C000401CC0B2B0FBFAF20AFB1201DFF848810B
:1008D000A146307009B10A287BD2012204A948F24E
:1008E0004E10FFF7B5FF9DF810004FF0000701070D
:1008F0005FD000F00F0106295BD2FF2088408DF801
:100900000800C04340F0C000DFF810B1454688F849
:100910001C004FF00109297F09FA04F0014229D097
:100920003F48042201A930F81400FFF791FF9BF81B
:10093000061041B39DF804109DF8052001EB02223A
:1009400005EB44014A829DF806209DF80730BBF86C
:10095000000002EB0322801AA1F808009DF80700AE
:1009600000909DF806309DF805209DF804102DA0FC
:1009700002F0D8F9641CE4B2052CCCD328894FF0DE
:10098000010988B114E09DF804009DF8051000EB02
:10099000012105EB440001819DF806109DF8072018
:1009A00001EB02214182D9E7688A08B98DF81070FD
:1009B00037709DF8100001060BD500F00F000628D7
:1009C00007D28DF80870012202A948F24E1000F0FB
:1009D00031F89DF8100000F08F00802810D198F8B1
:1009E0001C00010602D520F0800007E04FF6FF71E1
:1009F000A8F80810A8F8121000F0E00088F81C0011
:100A00003078F02801D986F800A005B04846BDE846
:100A1000F08F0000040000200C000020CC02002019
:100A20006C8C020825642025642025642025640D33
:100A30000A0000002DE9F04116460F460446002545
:100A4000FFF752FD2820FFF725FDFFF78DFD200A57
:100A5000FFF720FDFFF788FDE0B2FFF71BFDFFF772
:100A600083FD002408E0385DFFF714FDFFF77CFDEF
:100A7000050003D1641CE4B2B442F4D3FFF754FD83
:100A80002846BDE8F081000070B500201AF044FC53
:100A9000054613F037FC484C4848A56012F078FE34
:100AA00001460022A0681DF0E7FD1021A0681AF0A1
:100AB000A1FBA06811F094FC6060424840A1016174
:100AC0003FA141623EA181633FA1C16400F092F861
:100AD00000223E4960681DF02DFE3A49606811F021
:100AE00091FF0121606812F061F8022160681AF03C
:100AF00081FB0022114660681DF0D5FD00221146E1
:100B000060681DF0CBFDF022114660681DF0A3FC6B
:100B1000052160681DF075FB4FF40041606819F015
:100B2000A5FFA06818F0A8F914235A420321E06039
:100B30001AF02CF800222549E0681DF0FBFD228800
:100B400023A1E06819F039F8A06811F003FC06460B
:100B5000232246211DF07FFC204812F019FE014699
:100B6000002230461DF088FD14231A46012130462C
:100B70001AF00CF8304618F07FF9002305461A46A3
:100B800009211AF003F816A1284618F0DFFF002308
:100B90001A461549A06819F02BFF00231A4613497D
:100BA000606819F025FF3046BDE870400023072239
:100BB0000F4919F01DBF000074000020474747008F
:100BC0000A00000088040020000000000848030814
:100BD00073636F72653A256400000000FF7D2E008C
:100BE0007265737461727400D5E90008B12502085A
:100BF0008558000870B513480022134B0280114637
:100C0000002001EB8104261810A5401C43F8265053
:100C10000428F8DB491C0429F2DB0B4C0020203CA3
:100C2000002104EBC00300BF23F81120491C042954
:100C3000FADB401C0428F3DB25F048FBBDE87040DC
:100C400025F044BB74000020880400202000000030
:100C50002DE9F84304464FF00009CDF800906348B1
:100C60004FF41651A56D0068B0FBF1F72E6894F8AB
:100C70005C10082000FA01F131420FD021680A68A7
:100C800052070BD50A6822F004020A6094F85C103F
:100C90008840A860606D40F00100606594F85C10C9
:100CA0004FF0010808FA01F0304208D02168496984
:100CB000090604D5A860606D40F00200606594F8F4
:100CC0005C1004208840304208D0216809688907F8
:100CD00004D5A860606D40F00400606594F85C1075
:100CE00010208840304218D021680968090714D5BF
:100CF000A86020680168490304D50068000308D58E
:100D0000A16C07E00168C90503D4016821F008015E
:100D10000160216C09B12046884794F85C102020BE
:100D20008840304231D021680968C9062DD5A860B5
:100D300094F8350005282068016806D0490347D596
:100D4000006800031DD4616C1CE021F016010160F5
:100D50002068416921F080014161206C08B9A06CD4
:100D600020B12068016821F00801016094F85C104E
:100D70003F208840A86084F8358084F83490216D45
:100D80001FE0E16B09B120468847606D00282BD039
:100D9000606DC00714D0052084F835002068016814
:100DA00021F0010101600098401C0090B84203D876
:100DB00020680068C007F6D184F8358084F8349044
:100DC000E16C002910D001B02046BDE8F04308478F
:100DD0000168C905D5D4016821F01001016084F8CB
:100DE000358084F83490CCE7BDE8F88368000020B3
:100DF0002DE9F041044600F0B1F906465CB102204D
:100E000084F83500002584F834502068016821F00A
:100E1000010101600DE00120BDE8F08100F09EF9C4
:100E2000801B052805D920206065032084F8350043
:100E3000F2E720680068C007F0D1226811682048F6
:100E40000140D4E901031843D4E90336334318437E
:100E500063691843A3691843E3691843236A184375
:100E60000843616A042903D1D4E90B1319430843E9
:100E7000106020684069666A20F0070130460E4322
:100E8000012704280CD1A06A0643E06A40B120463D
:100E9000FFF7B0FB20B14020606584F83570BAE7F9
:100EA000206846612046FFF791FB94F85C203F21C3
:100EB00091408160656584F835700020ACE70000E2
:100EC0003F8010F02DE9F0410446866D90F8340023
:100ED000002501280DD0012084F8340094F83570E5
:100EE0000020012F07D084F8340002252846BDE8F1
:100EF000F0810220FBE7022784F835706065204608
:100F0000FFF7A2FB94F85C103F208840B060206897
:100F1000016841F016010160206C20B12068016871
:100F200041F0080101602068016841F001010160A1
:100F3000DCE7000070B5044600F010F90546601CBF
:100F400002D004480078044400F008F9401BA04295
:100F5000FAD370BD5C0000202DE9F84FDFF8BCA18A
:100F60000022012503264FF00F090AF1040BAAF114
:100F7000040E00BF0B6805FA02F42340A34270D1AF
:100F80000F7907F00307012F01D0022F16D18768D0
:100F90004FEA420806FA08FC27EA0C07D1F80CC011
:100FA0000CFA08FC4CEA070CC0F808C04768A743D5
:100FB0000C79C4F3001494403C4344600C79E4433E
:100FC000A4070AD0C4684FEA420C06FA0CF7BC43E7
:100FD0008F6807FA0CF72743C7600C7904F0030405
:100FE000022C12D1D40800EB840CDCF82040570707
:100FF000FF0E09FA07F824EA0804D1F8108008FA6D
:1010000007F848EA0408CCF8208004684FEA420C4C
:1010100006FA0CF7BC430F7907F0030707FA0CF741
:10102000274307604C6814F4403F70D03C4C27685D
:1010300047F480472760246822F0030704F48044C3
:101040000094384C07EB040CDCF8084897074FEA8B
:10105000177809FA08F7BC43334FB84202D100278A
:1010600024E054E0314FB84201D101271EE0304F57
:10107000B84201D1022719E02E4FB84201D103270F
:1010800014E02D4FB84201D104270FE02B4FB84296
:1010900001D105270AE02A4FB84201D1062705E011
:1010A000284FB84201D1072700E0082707FA08F7C0
:1010B0002743CCF80878DAF800405746D1F804C046
:1010C0009C435FEACC2C00D51C433C60DBF800401D
:1010D0005F46D1F804C09C435FEA8C2C00D51C43CA
:1010E0003C60DEF800407746D1F804C09C435FEADC
:1010F0008C3C00D51C433C60084F083F3C68D1F84D
:1011000004C09C435FEACC3C00D51C433C60521CAD
:10111000102AFFF42FAFBDE8F88F0000083C014013
:101120004438024000300140000002400004024008
:1011300000080240000C024000100240001402406F
:1011400000180240001C02400069084000D0012045
:1011500070470AB1816170470904FBE70148806864
:10116000704700005C00002002488168027811444A
:10117000816070475C0000200B4810B5016841F4A5
:1011800000710160016841F480610160016841F40F
:1011900080710160032000F06FF80F2000F006F866
:1011A00000F024F8002010BD003C024070B50D4D49
:1011B00004464FF47A712878B1FBF0F00A490968C7
:1011C000B1FBF0F000F0DAFC48B9102C07D2002295
:1011D0002146501E00F030F800206C6070BD0120E8
:1011E00070BD00005C000020680000200A4808B5BF
:1011F000016841F480410160006800F48040009083
:101200000548001F016841F080510160006800F04E
:101210008050009008BD000044380240002809DBDF
:1012200000F01F02012191404009800000F1E02000
:10123000C0F8001170470000F0B40E4B1B680C465C
:10124000C3F30223C3F10705042D00D90425191D9A
:10125000072901D2002300E0DB1E012606FA05F172
:10126000491E214099409E40761E16403143F0BCF5
:1012700001F068BD0CED00E0064900F007020868C7
:101280004FF6FF03184040EA0220034A104308606B
:10129000704700000CED00E00000FA052DE9F04772
:1012A0000E46050065D0DFF81481D8F80000F7B2CB
:1012B00000F00700B04207D288F80070D8F80000AC
:1012C00000F00700B04254D128683D4C810712D588
:1012D000400703D5206840F4E050206028780007DC
:1012E00003D5206840F4604020602068A96820F0A1
:1012F000F000084320602878C0072DD03049686886
:101300000839012812D0022813D0032811D0096807
:10131000890700292DDA216821F0030101432160AA
:10132000FFF71CFF814641F2883A0EE00968890305
:10133000EFE709688901ECE7FFF710FFA0EB09016F
:10134000514502D90320BDE8F0872068696800F0A4
:101350000C00B0EB810FEFD1D8F80010404601F03F
:101360000701B14207D90770006800F00700B042DA
:1013700001D00120E7E72878400705D52068E96813
:1013800020F4E050084320602878000706D5206844
:10139000296920F4604040EAC100206000F038F87C
:1013A0002168084AC1F30311515CC840064908602E
:1013B00006480068FFF7FAFE0020C4E7003C024040
:1013C000083802407E8C020868000020600000207F
:1013D0000448054900680968044AC1F38221515C48
:1013E000C840704768000020083802408E8C020810
:1013F0000448054900680968044AC1F34231515C58
:10140000C840704768000020083802408E8C0208EF
:10141000154810B5006810F00C02144813D04110A4
:10142000042A0FD0082A0ED10F4C241F22682368EB
:1014300002F03F025B0207D52068C0F38810A0FBD2
:10144000010106E0084610BD2168C1F38811A1FB27
:1014500000010023FEF7B4FE2168C1F30141491CDD
:101460004900B0FBF1F010BD083802400024F40040
:101470002DE9F84F04006ED02078DFF84C93C007B8
:10148000A9F104054AD009F104000168C1F3810102
:10149000012908D00068C0F3810002280AD1D9F8D8
:1014A0000000400206D52868800337D56068002810
:1014B000E1D033E06068B0F5803F10D0B0F5A02FE8
:1014C000286810D020F480302860286820F480201C
:1014D00028606068A8B1FFF741FE06460DE0286865
:1014E00040F48030F4E740F480202860F7E700BF44
:1014F000FFF734FE801B642873D828688003F7D573
:101500000CE0FFF72BFE064605E000BFFFF726FEC6
:10151000801B6428F0D828688003F7D42078DFF88F
:10152000AC8280074FF0000A3ED5A748001D016835
:1015300011F00C0F08D00068C0F3810002280BD115
:10154000D9F80000400207D42868800716D5E06863
:10155000012800D112E033E1E068B8B10120C8F8F9
:101560000000FFF7FBFD064605E000BFFFF7F6FDB4
:10157000801B0228C0D828688007F7D52868216911
:1015800020F0F80040EAC10028600DE0C8F800A093
:10159000FFF7E4FD064604E0FFF7E0FD801B0228AC
:1015A0001FD828688007F7D42078000722D5864FF7
:1015B00087486169703771B101210160FFF7CEFD85
:1015C000064604E0FFF7CAFD801B022809D83868E8
:1015D0008007F7D50EE0C0F800A0FFF7BFFD064674
:1015E00005E082E0FFF7BAFD801B02287DD838684D
:1015F0008007F7D42078400768D5DFF8CCB1002702
:101600000BF13C0BDBF80000C0000BD4DBF8001042
:1016100041F08051CBF80010DBF80000012700F00A
:10162000805000906B4E3068C00510D4306840F494
:1016300080703060FFF792FD009005E0FFF78EFDAF
:101640000099401A022850D83068C005F6D55E4E81
:10165000A0686C3601280FD00528306810D020F023
:1016600001003060306820F004003060A068B8B13C
:10167000FFF774FD00900FE0306840F00100F4E7E0
:1016800040F004003060F7E7FFF768FD0099411A69
:1016900041F28830814266D830688007F4D50EE088
:1016A000FFF75CFD009007E0FFF758FD0099411A35
:1016B00041F28830814256D830688007F4D42FB187
:1016C000DBF8001021F08051CBF80010A069C8B3FE
:1016D0003D49091D0968C1F3810102294AD0022848
:1016E000504607D0C8F8600000E03CE0FFF736FD48
:1016F00004463BE04746C8F86000FFF72FFD06466A
:1017000005E000BFFFF72AFD801B02282BD82868C0
:101710008001F7D4D4E907010843A16A2E4A490899
:1017200002EB0141626A41EA8211084394F82C10ED
:1017300040EA0161C9F8001001203866FFF70EFD8C
:10174000044606E03EE000BFFFF708FD001B02284C
:1017500009D828688001F7D534E000BFFFF7FEFC08
:10176000001B022802D90320BDE8F88F28688001F9
:10177000F4D427E00128F7D0D9F80000E26900F49A
:10178000800191421CD1226A00F03F01914217D1A1
:1017900047F6C071626A0140B1EB821F10D1A26AA4
:1017A0004FF0FF3300F4403103EB5202B1EB024F34
:1017B00006D194F82C1000F07060B0EB016F01D0EE
:1017C0000120D1E70020CFE7043802400000474263
:1017D000800E4742007000400000FFFF704790F805
:1017E0005100704770B5040009D0606A002540B10F
:1017F00025616561A56294F8510040B10CE00120BB
:1018000070BD6068B0F5827FF4D0E561F2E784F8DE
:101810005050204600F044F8022084F8510020681F
:10182000016821F040010160A088218900F48270E4
:1018300001F404410843A18901F400610843217CBB
:1018400001F002010843217D01F001010843218BD1
:1018500001F400710843217F01F03801084394F836
:10186000201001F080010843218D01F4005108434C
:1018700021680860A069042101EA104094F824104E
:1018800001F010010843216848602068C16921F413
:101890000061C1616565012084F85100002070BDC0
:1018A00070B586B0064614216846FEF7F4FC204960
:1018B000306888423AD11F480025016841F48051C0
:1018C0000160006800F4805005901A4814380168DF
:1018D00041F0010101600068694600F001000590D7
:1018E000E02000900220CDE90105032003900520AF
:1018F00004901148FFF730FB114C104820604FF066
:10190000C06060604020C4E9020500012061400021
:1019100060618000C4E90605256220466562FFF724
:1019200067FA08B1FEF7A5FEB464A66306B070BD01
:101930000030014044380240000002405864024038
:10194000300300202DE9F84F984616468A46044693
:10195000FFF704FC814694F8510001281ED1BAF12A
:10196000000F73D0002E71D094F85000012815D0CC
:10197000012784F85070032084F851000025656524
:10198000C4F830A0A686E686A563A587E5876564CA
:101990002564A068B0F5004F03D00CE00220BDE83C
:1019A000F88F2068016821F040010160206801681B
:1019B00041F48041016020680168490603D4016850
:1019C00041F040010160E068B0F5006F606803D04D
:1019D00048B3012E27D047E008B1012E1FD1206B5C
:1019E00021680088C86006E020688168890709D5F9
:1019F000216B0988C160206B801C2063E08E401E33
:101A0000E0860CE0FFF7AAFBA0EB0901414503D3F8
:101A1000B8F1FF3F03D035E0B8F1000F32D0E08ECF
:101A20000028E1D123E0206B21680078087306E0EC
:101A30002068816889070AD5216B09780173206BBA
:101A4000401C2063E08E401EE0860DE02BE0FFF797
:101A500085FBA0EB0901414503D3B8F1FF3F03D05B
:101A600010E0B8F1000F0DD0E08E0028E0D14A461A
:101A70004146204600F000FF08B120206065A068C4
:101A800030B109E084F8517084F85050032086E7A3
:101A90002068C1688068009084F8517004F8505F35
:101AA00060680028F3D0012079E7000070B5044693
:101AB00090F8510001281CD1C9B1C2B194F850006E
:101AC000012816D0012084F85000032084F851002A
:101AD000002565652163A286E286A56365642564A9
:101AE000A587E587A068B0F5004F04D00DE0012080
:101AF00070BD022070BD2068016821F040010160C6
:101B00002068016841F480410160A16C17480864B5
:101B1000A16C1748C863A16C1648C864A06C056521
:101B2000E38E2268216B0C32A06CFFF7CBF930B149
:101B3000606D40F01000606584F85050D7E7206871
:101B40000168490603D4016841F04001016084F84E
:101B500050502068416841F0200141602068416890
:101B600041F002014160002070BD0000092800081A
:101B700013280008E72700087047704710B5401E7B
:101B8000B0F1807F01D3012010BD4FF0E0246061EF
:101B90000F21601701F0D6F80020A0610720206116
:101BA000002010BD7047704770B590F83C20012AA6
:101BB00032D0012480F83C40022280F83D200368A6
:101BC0005A689D6822F070060A6832435A60134BC7
:101BD00002689A4214D0B2F1804F11D0104B9A4251
:101BE0000ED0104B9A420BD00F4B9A4208D00F4B9D
:101BF0009A4205D00E4B9A4202D00E4B9A4204D123
:101C0000496825F080031943916080F83D40002128
:101C100080F83C10084670BD022070BD00000140F5
:101C20000004004000080040000C00400004014097
:101C3000004001400018004010B5040003D094F8A3
:101C40003D0010B107E0012010BD002084F83C00E9
:101C5000204600F01FF8022084F83D00211D206876
:101C600000F0F8FE012084F8460084F83E0084F875
:101C70003F0084F8400084F8410084F8420084F872
:101C8000430084F8440084F8450084F83D000020B7
:101C900010BD000008B5114A01681148914208D1F1
:101CA000016841F010010160006800F01000009030
:101CB00008BD0C4A9142FBD1016841F0200101604E
:101CC0000068002200F02000009004213720FFF778
:101CD000B3FABDE808403720FFF7A0BA0010004073
:101CE000403802400014004090F83D10012901D016
:101CF00001207047022180F83D1000681149884298
:101D000014D0B0F1804F11D00F4988420ED00F4946
:101D100088420BD00E49884208D00E49884205D02F
:101D20000D49884202D00D49884204D1816801F0F2
:101D30000701062903D0016841F00101016000207C
:101D4000704700000000014000040040000800400F
:101D5000000C004000040140004001400018004019
:101D600090F83D10012901D001207047022180F830
:101D70003D100168CA6842F00102CA60006811495A
:101D8000884214D0B0F1804F11D00F4988420ED054
:101D90000E4988420BD00E49884208D00D4988422E
:101DA00005D00D49884202D00C49884204D181688F
:101DB00001F00701062903D0016841F0010101602B
:101DC000002070470000014000040040000800406F
:101DD000000C004000040140004001400018004099
:101DE00001680A6A41F211131A4207D10A6A9B106C
:101DF0001A4203D10A6822F001020A60012180F828
:101E00003D100020704770472DE9F04104460068FE
:101E1000C66805694FF00007A90713D5B10711D5AA
:101E2000F91E016101202077206880698007204623
:101E300002D0FFF7E8FF04E000F07EF8204600F053
:101E40007CF82777680716D5700714D521686FF0DE
:101E500004000861022020772068806910F4407F28
:101E6000204602D0FFF7CFFF04E000F065F82046DF
:101E700000F063F82777280715D5300713D52168B8
:101E80006FF008000861042020772068C06980078F
:101E9000204602D0FFF7B7FF04E000F04DF82046DF
:101EA00000F04BF82777E80616D5F00614D5216820
:101EB0006FF010000861082020772068C06910F4D6
:101EC000407F204602D0FFF79EFF04E000F034F888
:101ED000204600F032F82777E80708D0F00706D050
:101EE00021686FF001000861204600F027F82806FD
:101EF00008D5300606D521686FF0800008612046BD
:101F0000FFF750FE680608D5700606D521686FF009
:101F100040000861204600F01BF8A8060AD5B0066C
:101F200008D521686FF0200008612046BDE8F04127
:101F3000FFF739BEBDE8F08170477047006803497C
:101F4000884202D101201FF053B9704700140040AD
:101F5000704770B5040004D094F84100002510B11A
:101F600006E0012070BD84F84050204600F024F8BF
:101F7000242084F841002068C16821F40051C16028
:101F8000204600F00FFE2068016921F490410161B4
:101F90002068416921F02A0141612068C16841F44B
:101FA0000051C1606564202084F8410084F842003B
:101FB0006563002070BD000010B586B00446142192
:101FC0006846FEF768F914492068884221D1134811
:101FD0000021026842F010020260006800F0100068
:101FE00005900E481438026842F001020260006851
:101FF00000F0010005904FF4C06000900220CDE990
:102000000101032003900720049069460448FEF76D
:10201000A3FF06B010BD000000100140443802408C
:10202000000002402DE9F843044690F8410098462C
:1020300016460D46202802D00220BDE8F88385B15F
:102040007EB100206064212084F84100FFF786F80B
:10205000A6848146E684A0682027B0F5805F02D080
:1020600003E00120E9E7206910B12E4600250EE0CB
:1020700000260CE08021204600F01AFEA8B9C6B167
:1020800016F8010B21684860E08C401EE084E08C6B
:102090004B464FF00002CDF800800028EAD14FF007
:1020A0004001204600F004FE40B184F84170032056
:1020B000C3E735F8020BC0F30800E3E784F841708A
:1020C0000020BAE7FEE70000024601210148FFF7C1
:1020D00040B80000000402402DE9F84305461448CA
:1020E0000024214602884388204603FB02F600F0C4
:1020F000F5F900F065FA012000F098F90020FFF7EB
:10210000E3FF2F0AEDB24FF6FF780AE08DF800707A
:102110008DF801504346022269460648FFF712FC3B
:10212000641CB442F2D3BDE8F8430120FFF7CCBFF2
:10213000CC020020D80200202DE9F0410D46591BA9
:10214000141A491C621C02FB01F68BB292B229469A
:10215000069F00F0C3F900F033FA0020FFF7B4FF48
:10216000012000F063F90D4D2868016841F4006119
:102170000160B2B239462846FFF798FC0748FFF7DE
:102180002EFB0328FAD02868016821F40061016061
:10219000BDE8F0410120FFF797BF0000D802002002
:1021A000F0B41149F0232C252A26104A4FF0000CD8
:1021B0004FF4A0742B2760B1012088710C804B80F4
:1021C000CD710E724F7282F800C01078F0BC00F032
:1021D00035B981F806C00B804C80CD710E724F72FC
:1021E00005201070F1E70000CC0200200000002064
:1021F00010B5112000F0B6F97820FEF79BFE3620CE
:1022000000F0B0F9002000F099F93A2000F0AAF9A6
:10221000552000F093F9B02000F0A4F9112000F04F
:102220008DF9F02000F08AF9B12000F09BF94020F0
:1022300000F084F9102000F081F9122000F07EF9FE
:10224000B22000F08FF90C2000F078F90C2000F09B
:1022500075F9002000F072F9332000F06FF9332097
:1022600000F06CF9B72000F07DF9752000F066F9F8
:10227000BB2000F077F9192000F060F9C02000F0D1
:1022800071F92C2000F05AF9C22000F06BF90120FE
:1022900000F054F9C32000F065F90B2000F04EF96E
:1022A000C42000F05FF9202000F048F9C62000F0BB
:1022B00059F90F2000F042F9D02000F053F9A42082
:1022C00000F03CF9A12000F039F9B02000F04AF903
:1022D000002000F033F9D02000F030F9E02000F0C9
:1022E00041F9702000F02AF9042000F027F90C20B1
:1022F00000F024F90E2000F021F90E2000F01EF964
:10230000072000F01BF9322000F018F9442000F0FB
:1023100015F9442000F012F9072000F00FF9102001
:1023200000F00CF90E2000F009F9122000F006F977
:10233000162000F003F9E12000F014F9702000F0FD
:10234000FDF8032000F0FAF80A2000F0F7F80D205D
:1023500000F0F4F80D2000F0F1F81A2000F0EEF88B
:10236000332000F0EBF8442000F0E8F8442000F0BF
:10237000E5F83F2000F0E2F81C2000F0DFF81B2019
:1023800000F0DCF81D2000F0D9F8212000F0D6F88C
:10239000352000F0E7F8002000F0D0F8BDE810404C
:1023A000292000F0DFB8000010B5012000F036F859
:1023B0000A20FEF7BFFD002000F030F81420FEF7E1
:1023C000B9FD012000F02AF81420FEF7B3FDFFF755
:1023D0000FFF0020FFF7E4FE4FF6FF742046FFF7E3
:1023E0007BFE0C48418802883F3901EBD170C0F375
:1023F0004F01503A02EBD270C0F34F00064A0DF085
:1024000011FC4FF4FA70FEF795FD2046BDE8104030
:10241000FFF762BECC0200200465020802461021CC
:102420000148FEF796BE0000000802400246022165
:102430000148FEF78EBE00000004024010B50021E6
:10244000082805D2DFE800F0161812140C19100E37
:10245000082812D2DFE800F0110406080A0C0E105A
:1024600080210AE0402108E0C02106E0202104E0AC
:10247000602102E0A02100E0E021362000F0A6F873
:10248000154C207A00F06EF8002000F057F800207C
:1024900000F054F82088401EC0F3072000F04EF8EA
:1024A0002078401EC0B200F049F8607A00F05AF877
:1024B000002000F043F8002000F040F86088401E43
:1024C000C0F3072000F03AF8A078BDE81040401EA5
:1024D000C0B200F033B80000CC0200202DE9F0417A
:1024E00005461044401E87B2C818DFF84C80401ED5
:1024F00086B20C4698F8080000F034F8280A00F07C
:102500001DF8E8B200F01AF8380A00F017F8F8B22F
:1025100000F014F898F8090000F024F8200A00F000
:102520000DF8E0B200F00AF8300A00F007F8F0B257
:10253000BDE8F04100F002B8CC02002001B5012056
:10254000FFF774FF0020FFF7BFFD4FF6FF73012276
:1025500069460348FFF7F6F90120FFF7B5FD08BD0E
:10256000D802002001B50020FFF760FF0020FFF730
:10257000ABFD4FF6FF73012269460348FFF7E2F90E
:102580000120FFF7A1FD08BDD802002038B50446A0
:102590000120FFF74BFF0020FFF796FD200A8DF882
:1025A00000008DF801404FF6FF7302226946034890
:1025B000FFF7C8F90120FFF787FD38BDD8020020DA
:1025C0000148C079FFF7CEBFCC02002010B50C4601
:1025D000FFF7C8FFE0B2BDE81040FFF7AFBF000053
:1025E000094808B5016841F48001016000680022D3
:1025F00000F48000009005213B20FEF71DFEBDE8A1
:1026000008403B20FEF70ABE303802402DE9F04377
:1026100087B014216846FDF73EFE2A48002601686F
:1026200041F080010160016801F0800105910168BD
:1026300041F004010160016801F0040105910168A5
:1026400041F001010160016801F00101059101689B
:1026500041F00201016000681B4F00F0020005908C
:10266000012233213846FEF774FDDFF86080012235
:1026700006214046FEF76DFDDFF85490012203214C
:102680004846FEF766FD02253320012403958DE8B8
:10269000510069463846FEF75FFC0620009001AA0B
:1026A000112082E8310069464046FEF755FC0320C0
:1026B00003958DE8510069464846FEF74DFC07B08A
:1026C000BDE8F083303802400008024000000240BC
:1026D00000040240104810B50E4901604FF48271A9
:1026E0004160002102228160C0E90312012242619F
:1026F0005202C0E906210162416281620A21C1627F
:10270000FFF770F8002803D0BDE81040FDF7B1BF17
:1027100010BD000000300140D80200201CB500248C
:102720000E4800940C49019401604721C0E901144E
:102730004FF6FF718461C160FFF77EFA08B1FDF7C3
:1027400098FF0094694605480194FFF72DFA002888
:1027500001D0FDF78EFF1CBD00100040900300204B
:102760001CB500240F4800940D49019401604721D5
:10277000C0E9011440F2E731C16080218161FFF7B7
:102780005BFA08B1FDF775FF0094694605480194AE
:10279000FFF70AFA002801D0FDF76BFF1CBD00000F
:1027A00000140040D80300200C4810B50A4901600D
:1027B0004FF4E1314160002181600C22C160C0E929
:1027C00004128161C161FFF7C4FB002803D0BDE89A
:1027D0001040FDF74EBF10BD001001402004002046
:1027E000FEE7FEE7704710B5806B01684A6822F08B
:1027F00003024A60416D41F010014165012180F8FA
:102800005110FEF7EBFF10BD10B5806BFFF7B5F967
:1028100010BD38B50546846BFEF7A0FC024628685B
:102820000068C00523D42068416821F02001416080
:102830002068416821F0020141606421204600F0D7
:102840001BF818B1606D40F020006065A0680021A1
:1028500018B92068C26880680090E186012084F879
:102860005100606D18B12046FEF7B8FF38BD204614
:10287000FFF782F938BD0000F8B515460E460B4645
:10288000009204460122022100F02CF8A0B913485E
:1028900013490068B0FBF1F04FF47A71484300909F
:1028A0006068B0F5827F0DD133460022802120463A
:1028B000009500F017F870B1606D40F02000606581
:1028C0000320F8BD009830B1401E00902068806859
:1028D000C0430006F6D50020F8BD000068000020C7
:1028E00000366E012DE9F8431E469146884604469F
:1028F000089DFEF733FC401B351AFEF72FFC0746F8
:1029000026480068C0F3CB3068430AE0701C09D049
:10291000FEF724FCC01BA8420FD275B10098B8B3D3
:10292000401E00902068816838EA010033D0002101
:102930004945EBD10020BDE8F8832068416821F0CB
:10294000E00141606068B0F5827F0BD1A068B0F50E
:10295000004F02D0B0F5806F04D12068016821F0EB
:1029600040010160A06AB0F5005F09D120680168EC
:1029700021F4005101602068016841F400510160B8
:10298000012084F85100002084F850000320D2E791
:10299000FFE70025C6E70121CAE700006800002024
:1029A0007047FEF7E1BB000030B593B030216846B8
:1029B000FDF771FC14210CA8FDF76DFC1C480025E7
:1029C000016841F080510160006800F08050119072
:1029D0001848016841F4804101600068022400F455
:1029E0008040119001200090000401908001CDE909
:1029F000064008200890A820CDE9090404200B9087
:102A00006846FEF735FD08B172B6FEE70CA90F2047
:102A100081E831004FF48050CDE90F0502210CA868
:102A2000FEF73CFC002801D072B6FEE713B030BDC3
:102A300040380240007000400248016841F47001D3
:102A40000160704788ED00E00148FFF7DDB9000044
:102A5000D8030020F0B50268274B284D284E294F97
:102A6000294C4FF0804C984209D0604507D0A842CD
:102A700005D0B04203D0B84201D0A04204D122F028
:102A8000700E4A6842EA0E0298421BD0604519D087
:102A9000A84217D0B04215D0B84213D0A04211D0EE
:102AA0001A4DA8420ED01A4DA8420BD0194DA8427B
:102AB00008D0194DA84205D0184DA84202D0184D93
:102AC000A84203D122F44075CA682A434D6922F016
:102AD00080022A438D68C5620D688562984201D0E4
:102AE000A04201D109690163016841F0040101605C
:102AF000012141610260F0BD00000140000400407E
:102B000000080040000C004000040140004001406B
:102B1000004401400048014000180040001C0040F3
:102B20000020004010B5FDF7A7FD08B1002010BD42
:102B300006480549416090F82C1041F0800180F86A
:102B40002C10012010BD0000B10800080C0000206E
:102B5000FDF7AEBE01680C3151E8002F22F49072EF
:102B600041E80023002BF5D10168143151E8002F12
:102B700022F0010241E80023002BF5D1016B01296D
:102B800009D101680C3151E8002F22F0100241E810
:102B90000023002BF5D1202180F842100021016391
:102BA0007047000070B5044600680169E26821F4CE
:102BB0004051114301612169A068E26908436169DC
:102BC000114308432168CA6849F20C639A430243DF
:102BD000CA6020684169A26921F4407111434161D2
:102BE00031492068884202D03049884202D1FEF73C
:102BF000FFFB01E0FEF7ECFBE269002319216425ED
:102C00003226B2F5004F626828D0A0FB0101930F75
:102C10009200FDF7D5FA0146B0FBF5F06FF018020F
:102C2000504301EB800006EB0010B0FBF5F000F024
:102C3000F002B1FBF5F002EB0012B1FBF5F06FF022
:102C40001803584301EB800006EB0010B0FBF5F0D1
:102C500000F00F0021681044886070BDA0FB0101E6
:102C600092185B41FDF7ACFA0146B0FBF5F00201AA
:102C7000B1FBF5F06FF01803584301EB800006EB51
:102C8000C000B0FBF5F000F0F80002EB4002B1FB31
:102C9000F5F0584301EB800006EBC000B0FBF5F007
:102CA00000F00700D6E700000010014000140140CA
:102CB0002DE9F843984617460D460446089E24E041
:102CC000701C22D0FEF74AFAA0EB0800B0421AD8D6
:102CD000CEB12068C168490717D5802D15D0402D89
:102CE00013D00168C94309070FD401680025406863
:102CF00000902046FFF72EFF0820606484F84050C3
:102D00000120BDE8F8830320FBE72068006835EA6E
:102D1000000004D00020B842D2D00020F1E701200A
:102D2000F9E7FEE70FB4054B10B503A9044A029872
:102D300001F08EFD10BC5DF814FB0000BDE9000839
:102D4000C80200200907090E002804DB00F1E0207A
:102D500080F80014704700F00F0000F1E02080F8C8
:102D6000141D704702E008C8121F08C1002AFAD1DA
:102D700070477047002001E001C1121F002AFBD1FB
:102D8000704770B5044600256FF02F0608E02068F4
:102D9000411C2160007805EB850106EB41014518D7
:102DA0002068007800F004F80028F0D1284670BDB3
:102DB0003038092801D801207047002070470000F2
:102DC00010B54021074801F081F80022042106488F
:102DD0001EF088FA054CA06002F0F8FA002020707E
:102DE00010BD0000DC3800207554000814020020DB
:102DF00070B5B1F90030B2F90040A34200DC2346BF
:102E00000380B1F90250B2F90240A54200DD2C4620
:102E10004480B1F90460B2F90450AE4200DA35469C
:102E20008580B1F90610B2F90620914200DB114607
:102E3000C1800120AB4201DC8C4200DD002070BD6E
:102E4000F8B50D460446B0F90000B1F90010164679
:102E5000884247DBB4F90210B5F90220914241DB08
:102E6000B4F90410B5F9042091423BDCB4F9061022
:102E7000B5F90620914235DC96B3ADF800006088C4
:102E8000ADF8020032466946284600F099F800285D
:102E900027D0A088ADF800006088ADF80200324667
:102EA0006946284600F08CF800281AD02088ADF832
:102EB0000000E088ADF8020032466946284600F07E
:102EC0007FF800280DD0A088ADF80000E088ADF8AC
:102ED000020032466946284600F072F8002800D009
:102EE0000120F8BD0020F8BDB0F90020B1F9043090
:102EF0009A4213DCB0F90420B1F900309A420DDB9C
:102F0000B0F90220B1F906309A4207DCB0F90600A8
:102F1000B1F90210884201DB0120704700207047A0
:102F2000F8B50D460446B0F90400B1F90010164694
:102F3000884243DBB4F90600B5F9021088423DDB54
:102F4000B4F90000B5F90410884237DCB4F9021076
:102F5000B5F90620914231DC76B3ADF80000608807
:102F6000ADF8020032466946284600F029F818BB41
:102F7000A088ADF800006088ADF8020032466946CE
:102F8000284600F01DF8B8B92088ADF80000E088A8
:102F9000ADF8020032466946284600F011F858B9EB
:102FA000A088ADF80000E088ADF80200324669461E
:102FB000284600F005F808B10020F8BD0120F8BD52
:102FC0002DE9FC4114460E46B1F90020B0F900107D
:102FD00005468A423ADBB5F90400824236DCB6F98E
:102FE0000270B5F90220974230DBB5F906309F42F6
:102FF0002CDC002C75DD401A9A1A401C521C00B2C1
:1030000012B200EBD07002EBD2724010521090421C
:1030100000DB1046844200DD0446ADF8001028882D
:1030200000222044ADF804006888ADF802006888EA
:1030300031462044ADF806006846FFF7C1FF40B1B5
:10304000BDF804002044ADF804003FE00020BDE8D6
:10305000FC81E8880022001BADF80200E888ADF88A
:10306000060031466846FFF7ABFF28B1BDF8040003
:103070002044ADF8040011E0A8880022001BADF840
:103080000000A888ADF8040031466846FFF798FFB5
:1030900050B1BDF80000001BADF80000BDF8020003
:1030A000001BADF8020016E06888ADF802006888E1
:1030B00000222044ADF8060031466846FFF780FF45
:1030C00070B1BDF80000001BADF80000BDF80600AF
:1030D0002044ADF80600314668461BF0F1FBB6E728
:1030E000FFE70120B3E710B5B1F90040B2F90030B5
:1030F0009C4200DA23460380B1F90240B2F9023063
:103100009C4200DA23464380B1F90440B2F904300E
:103110009C4200DD23468380B1F90610B2F90620F7
:10312000914200DC1146C18010BD0000FEB507468B
:103130001EF054F80025354C0646009537B1F86866
:10314000606038461EF09CF9606802E011F066F895
:10315000606000691BF050FB6068406908B11BF0BB
:103160004BFB6068C0691BF047FB6068006A1BF09E
:1031700043FB60680169E1B31BF01EFE1BF09AFD82
:103180006068B0F8501199B30168097C890715D5BA
:1031900011F0A2F8401E07B2606811F057F8401E07
:1031A00003B20022114601A800970EF0EEFE6068FF
:1031B00001A90268926B516004F06AFC60684FF4E8
:1031C0008071303017F01AF96068202100F598708E
:1031D00017F014F96068A0F8505130461DF0F8FF60
:1031E000009060680068436A13B1226800999847AC
:1031F00000E007E016F044FF00F036F8BDE8FE40BE
:1032000000F006B8A0F85051FEBD0000BC0200203E
:1032100070B50A4D002400BFC4EBC40655F8260063
:1032200008B116F0A1FF05EB86001C2117F0E6F8A7
:10323000641CE4B2042CEFD370BD0000B839002048
:10324000084949680AE04A68824202D00A68824214
:1032500003D10A7E42F001020A7649690029F2D1BF
:1032600070470000900200207047000004210148D0
:1032700000F02CBED03800201C21014800F026BEF2
:10328000E83800202DE9FF5F0446DDE90E0613B99A
:10329000B0F5807F7ED0B6F900504FF0FF376D4219
:1032A000454307EB25252DB22580B6F902C0CCF1A8
:1032B000000C0CFB00FC07EB2C273FB26780B6F933
:1032C00000C0A1EB0C0141434FF0020C0CEB21219B
:1032D00009B2A180B6F90280A2EB080242430CEBCE
:1032E000222000B2E080002B7ED04FF00A0A93FB30
:1032F000FAF5684200EB800003EB400705F1010995
:1033000028B21EF0FDF900900FFA89F01EF0F8F9CE
:1033100083465A3528B21EF0F3F9804609F15A0067
:1033200000B21EF0EDF90146009AC7F10A0000FB59
:1033300002F300FB08F00BFB073301FB070193FBD3
:10334000FAF291FBFAF04FEA601AB4F90010B4F9FE
:1033500002000AFB01FCCDF80CC05511378805FBB3
:1033600010C207EBA2220FFA82F905FB01F2BB465D
:10337000029277880AFB002107EBA1210BB2B4F976
:103380000410BE460AFB01FC05FB10C20BEBA22297
:1033900016B200E02FE005FB01F7CDE9007CB4F99F
:1033A0000680DDF80CC00AFB007005FB18C1DDF8D3
:1033B00004C0009F05FB18C5029A0AFB087C0AFBA3
:1033C00008220BEBA1210EEBAC270EEBA02009B2DB
:1033D0000EEBA2220BEBA5250FFA87FC00B212B26E
:1033E0002DB24F46494500E00EE000DA0F46B542E7
:1033F00016DAA84615E000202080491E6080A180D2
:10340000521EE280BDE8FF9F32882A4422807288E3
:103410003A44628032881144A180718808444FE0A8
:10342000B046474504DA4F46494506DA0F4604E000
:10343000B54201DA2F4600E0374627804F4649451E
:1034400000DD0F46B54201DDA84600E0B046474525
:1034500003DD4D46494505DC01E0B54201DD294665
:1034600000E03146A1809A4201DA154600E01D468F
:10347000844501DA614600E001468D4205DA9A4250
:1034800001DA114606E0194604E0844501DA614696
:1034900000E0014661809A4201DD114600E01946D4
:1034A000844501DD654600E00546A94205DD9A42F6
:1034B00001DD104604E0184602E0844500DD604668
:1034C000E0809FE72DE9FE4F0446D0F800B0B0F948
:1034D0000800E589081AB4F90A10511AD4E909322A
:1034E000B5F5807F38D0A589ADB3A66B7043451183
:1034F0004E437011266BE16A06FB05F701FB10775E
:10350000694306FB001003EBA72902EBA0208046CD
:103510000612B4F904004FEA2927B8424EDD002F05
:103520004CDBB4F90610B14248DD002E46DB94F8BE
:1035300034104A0745D58A0704F1140322D400FB4E
:10354000067045004FF0020A0BEB05015246184683
:1035500016F00AFF27E00DE0256BE66A05FB00F791
:1035600006FB1177464305FB016003EBA70902EB5D
:10357000A000CCE7A56B68434D4303EB601902EB59
:103580006510C4E700FB067000EB40054FF0030A2E
:103590000BEB05010222184616F0E6FEE81C584423
:1035A00010F8010CA07594F83400C0071FD04FF438
:1035B000FC60ADF80000A18A814218D10020BDE86E
:1035C000FE8F32B204F118002369CDE90102002513
:1035D00039B2AA468B4614F0B3F90090BDF800004A
:1035E000A082DDE90102594614F042F9DAE7E07CF5
:1035F00078B1A4F83C90A4F83E80A4F84070A4F8F8
:103600004260656484F848A02046BDE8FE4F00F0A3
:1036100002B80120D3E72DE9F04F044690F83C10A2
:10362000D0F8009090F83E0087B04FF0FF36702938
:1036300007DAB4F940203546012A00D5002580314B
:103640000DE0902916DDB4F94020B4F904300125CD
:10365000521C9A4200DB0025A1F27F114942C9B2F7
:103660008846702809DAB4F94210012900D50026ED
:10367000803010E00025FF21F2E790280DDDB4F93D
:103680004210B4F906200126491C914200DB0026B5
:10369000A0F27F104042C7B201E00026FF27606918
:1036A0000090A07D0590002083468246049094F807
:1036B0003400400744D594F84810606C11FB0501B4
:1036C0004944022201A816F04FFEA08894F8481041
:1036D00010FB01F0616C022206FB0011494403A8B3
:1036E00016F042FEA18894F8480011FB00F1626CCC
:1036F00006FB012210FB05901118022202A816F009
:1037000033FE94F83400800761D594F84800626C69
:1037100010FB052300EB09010B4413F8013C049353
:10372000A38813FB00F306FB0322114411F801BC2C
:1037300010FB0500111801EB090010F8010C45E021
:10374000B4F84000B4F94220284401B204F1180052
:103750008146236914F0F4F80190B4F84200B4F9FA
:103760004010304402B254F8103F484614F0E8F8D4
:103770000390608E2368304402B2208E284401B248
:10378000484614F0DDF8029094F82400103C8007BD
:103790001DD5B4F9422034F8400F284401B2484600
:1037A00014F066F804906088B4F90010304402B256
:1037B000484614F05DF883466088304402B234F81D
:1037C0004009284401B2484614F052F8824694F861
:1037D000340042464546800735D5059810FB08F36E
:1037E0000499C8F1FF0011FB0031C1F307211BFB55
:1037F00008F61AFB0060C0F3072011FB07F3C7F1BE
:10380000FF0610FB06331B0AA375022907D80228FE
:1038100003D8002007B0BDE8F08F002702E002289F
:1038200000D8FF270598022800D800220498022813
:1038300000D8FF22BBF1020F00D80025BAF1020F19
:1038400003D8FF2501E0FF20A075EAB1FF2A04D0CC
:10385000DDE9000110F0C0F80090BDB1FF2D17D0D8
:10386000DDE902102A4610F0B7F8049097B1FF2F57
:1038700005D001463A46009810F0AEF80090BDF829
:103880000000A0820120C5E70198E5E70298ECE777
:103890000398EAE7BDF81000F3E700002DE9F047D0
:1038A0000446B0F908000A2700026062B4F90A0071
:1038B0000002A062B4F90C1091FBF7F5684200EB2E
:1038C000800001EB4006684205F1010800B21DF0DE
:1038D00017FF8246E84300B21DF012FF8146C5F192
:1038E0005A0000B21DF00CFF0546C8F15A0000B2A4
:1038F0001DF006FFC6F10A0101FB0AF3024609FBAF
:103900000630694390FBF7F002FB061191FBF7F1DB
:103910004011E06248112063A07C14F0BEF894F8D6
:10392000341060F3000184F83410A07C14F0A5F882
:1039300094F8341060F3410184F83410A07C04281A
:1039400024D0052822D0062820D021F0040100BF71
:1039500084F8341021682162A16921F0E00160F34C
:103960000401A08860F39421E08860F35F51A161B5
:10397000E0894FF4001101EB5001B1FBF0F0A063BE
:10398000FF20A075208AA082BDE8F08741F00401E5
:10399000DEE700002DE9F04115460E460746114CC2
:1039A0001DF01CFC80462B4632463946204614F05A
:1039B000F5FB20B10020A062E06950B110E02C219D
:1039C000204616F01BFD4FF00040A0620020BDE82D
:1039D000F08140461DF0FCFBE06108B90120E06188
:1039E0002046F4E70C39002010B51421074800F0F8
:1039F0006DFA14F099FB40B1054901600549416039
:103A0000054981600549C16010BDFEE7F43800201A
:103A1000557B0108D17E010849800108217B0108FE
:103A200070B50D4604461021284616F0E7FC2068C4
:103A30000078012804D0022807D0042807D008E025
:103A4000208A2880608A688003E0E06800E00A201D
:103A5000686020684268002A03D02946BDE87040AB
:103A6000104770BDFEB5866A0446BEB9A08A218A99
:103A70000844A082E08A618A0844E08220460AF075
:103A8000ACFA060079D020460CF05CFE0022092139
:103A9000304613F02FFA607880076ED4208A10B970
:103AA000608A002869D00025ADF80450ADF80850B0
:103AB00094F83C0000F00F000328304616D018F0B0
:103AC00025FA0746304618F0DBF803460C20009034
:103AD000B4F912103A46304609F036FEADF8080047
:103AE000304618F01FF9C10712D017E018F0A2F9FC
:103AF0000746304618F03EF9024603200090B4F91C
:103B000010103B46304609F01FFEADF80400E7E711
:103B1000BDF90410002901DDADF80450810705D47A
:103B2000BDF90410002901DAADF80450410705D4AD
:103B3000BDF90810002901DDADF80850000705D4D3
:103B4000BDF90800002801DAADF8085002AA01A961
:103B500020461FF04EFB0023BDF90820BDF90410DC
:103B600030461AF0D9F9A08ABDF804100844A082A2
:103B7000E08ABDF808100844E082FEBD2DE9FC5F34
:103B80000446806A5FEA000B71D094F83C0000079D
:103B90006DD014F03DFE019000684021457E5846EE
:103BA00019F05EF94FF0000818B9A4F81A80A4F8CB
:103BB0001880584618F09CF98246584618F09FF92C
:103BC000064694F83C004FF0640900F00F000C2802
:103BD00002D003284CD09AE0A4F8188056B1B4F96A
:103BE0001A50002714F014FE00684946407EC0F1C8
:103BF000640022E0608BC5F1640110FB01F191FBD0
:103C0000F9F06083584618F03BF80546584618F01E
:103C10007DF902460C200090B4F91A102B46584644
:103C200009F092FD6083024600231EE07A1917B264
:103C300010FB05F292FBF1F215B2002DF6D1ADF8B2
:103C40000070A4F81A806A46002120461FF0D1FABD
:103C500041F6FF72BDF90030514258460AF022FB8E
:103C6000BDF800100123084402B200214CE09AE0A4
:103C7000A4F81A80BAF1000F0AD0B4F9185000273E
:103C800014F0C6FD00684946407EC0F1640022E0A1
:103C9000208BC5F1640110FB01F191FBF9F0208349
:103CA000584618F067F80546584618F0C3F803461A
:103CB00003200090B4F918102A46584609F044FD34
:103CC0002083014600231EE07A1917B210FB05F28B
:103CD00092FBF1F215B2002DF6D1ADF80070A4F808
:103CE00018800022694620461FF083FA41F6FF72D1
:103CF000BDF90030514258460AF04CFABDF80010A8
:103D00000123084401B2002258461AF005F9208B1D
:103D1000002848D1608B002845D1C6B9584618F014
:103D2000F5F80546584617F0ABFF002D06DC0028D5
:103D30000DDD002D02DA01232A4604E0002806DA10
:103D40000123404202B2002158461AF0E5F8BAF1C8
:103D5000000F19D1584618F00DF80546584618F0CE
:103D600069F8002D07DC00280EDD002D03DA0123A1
:103D70000022294605E0002806DA012300224042FD
:103D800001B258461AF0C8F80A215846019A13F0B1
:103D9000B1F86078800706D414F83C0F20F00F00CB
:103DA000207044F8148CBDE8FC9F00007FB50E46DF
:103DB000040003D110F032FA040023D00025FEB134
:103DC000ADF80050ADF8025010F040FA401EADF8CA
:103DD0000400204610F080FA401EADF806006A4646
:103DE000314602A8FFF704F800280BD02068017CB8
:103DF000890708D5DDE90001C4E90C0101202AE0AA
:103E0000A0F850517FBD82690AB102A990470026EF
:103E10000BE000BF04EBC601002202A83031FFF71F
:103E20000FF80028EED1761CB6B2B4F85001B042BB
:103E3000F0D880B2202804D204EBC00002A93030B0
:103E400004E0A4F8505104F1300069460EF03CF84B
:103E5000B4F85001401CA4F8500160680028D1D08B
:103E60001DF01AFB7FBD70B5054600F012F8044640
:103E70000CE02146284600F01EF80646214628465A
:103E800000F071F8204616F06FF93446002CF0D19E
:103E900070BD002800D04068704700B5034600227E
:103EA000FFF7F7FF03E01846521C00F004F801008A
:103EB000F9D1104600BD0068091D405870470068E0
:103EC00040587047002800D0806870470022426048
:103ED000C91C21F0030182600160704770B504467F
:103EE0000068083016F0B6F8050013D0014600222D
:103EF00020461EF0CBFA2946204662681EF0C0FA22
:103F0000616819B12A4620461EF0C0FA6560A068B3
:103F100000B9A560284670BD70B504460068083039
:103F200016F098F8050013D00146002220461EF036
:103F3000A7FA29462046A2681EF0A8FAA16819B17E
:103F40002A4620461EF09CFAA560606800B96560AC
:103F5000284670BD28B1416809B9806808B10020C1
:103F600070470120704770B504000DD0FFF791FF36
:103F700000228842204608D1FFF79DFF6060011EA5
:103F800001D000221EE0A26070BDFFF79BFF8842B7
:103F9000206808440AD10168A16029B12046BDE823
:103FA000704000221EF06CBA626070BD0568204649
:103FB000FFF781FF06460246294620461EF060FABA
:103FC0002A4631462046BDE870401EF05FBA10B563
:103FD0000446006882680AB121469047206800685C
:103FE000002801D02060F5E710BD8068002801D0CE
:103FF000B0F91600704700002DE9F047074690B071
:10400000408C189E40F00400788490463A8499468B
:104010008A463289384618F08FFD0546A7F8209069
:1040200032895146384618F087FD0446788CA542FF
:1040300020F00400788403D12904B1EB044F68D048
:10404000A7F8208032895146384618F075FD05469C
:104050008046A7F82090514638460BF065FB318921
:1040600000682A461CF030F83089602823D147F6D2
:10407000FF794D4501D04C451DD1384618F0A7FEBB
:1040800000EBD0704510384618F0A1FE00EBD07060
:104090004010C84506D1691C431C994200DA00E073
:1040A000194688464C4506D1691C421C914201DAEA
:1040B0006C1C00E014461948FFF710FF05002BD0D8
:1040C0002F60C5E903843089A8806846C5F808A038
:1040D0000DF0CAF91248FF21CDE9005011480290B5
:1040E0001148039000200790CDE9080130880A901C
:1040F00070889DF83E1040420B90F06806900020BA
:1041000060F300018DF83E103069059068460DF0AF
:104110001FFA10B0BDE8F087FEE70000003900206C
:10412000C15D0208B55F0208115F02081421014851
:10413000FFF7CCBE003900202DE9FC5F0025924638
:104140008B4606462C46042743F60F0843F60E0915
:1041500000E100BFF16807EBC400085882017DD47C
:1041600080B230EA0B0212D05FF0000230EA0A009F
:104170000FD00020824271D051F8340001AA41F6DC
:10418000100100901BF078FD002868D103E00122A7
:10419000ECE70120EEE701AA41F6110100981BF0BF
:1041A0006BFD002873D101AA41F6120100981BF0A3
:1041B00063FD00286BD101AA41F6130100981BF0A2
:1041C0005BFD002863D101AA41F6150100981BF0A0
:1041D00053FD00285BD101AA41F6140100981BF0A1
:1041E0004BFDE0BB01AA41F2690100981BF044FDC0
:1041F000A8BB01AA43F20C0100981BF03DFD70BB67
:1042000001AA43F20D0100981BF036FD38BB01AA4C
:1042100041F2010100981BF02FFD00BB01AA41F201
:10422000040100981BF028FDC8B901AA41F202015F
:1042300000981BF021FD90B901AA41F203010098FA
:104240001BF01AFD58B901AA41F2050100981BF0B4
:1042500013FD20B901AA41F2060101E079E016E060
:1042600000981BF009FD90B901AA41F232010098B3
:104270001BF002FD58B901AA414600981BF0FCFC56
:1042800028B901AA494600981BF0F6FC10B103209A
:10429000BDE8FC9F01AA40F60A0100981BF0ECFC67
:1042A000F0BB01AA40F60B0100981BF0E5FCB8BB7F
:1042B00001AA414600981BF0DFFC88BB01AA4946D1
:1042C00000981BF0D9FC58BB01AA40F63C010098AD
:1042D0001BF0D2FC20BB01AA40F63D0100981BF068
:1042E000CBFCE8B901AA40F63A0100981BF0C4FCE7
:1042F000B0B901AA4FF4046100981BF0BDFC78B975
:1043000001AA40F6450100981BF0B6FC40B901AA8D
:1043100040F6410100981BF0AFFC08B901AA00E08B
:1043200013E040F6420100981BF0A6FC68B901AA10
:1043300040F6430100981BF09FFC30B901AA40F6FB
:10434000490100981BF098FC08B1022501E005B96D
:104350000125641C708CC0F3C500A0423FF6FAAE84
:10436000284695E70148406870470000BC020020DD
:104370007047C0F30410072800D9072070470000D9
:1043800010B518210348FFF7A1FD0349012008706B
:1043900010BD0000AC380020400200202DE9F041A3
:1043A00090460C46050015D0FBF780FF0A4F0646E5
:1043B0002146BA68284690470446BA6828194146FB
:1043C00090470146701A03E06218AA5C2A55641CE3
:1043D000A042F9D2BDE8F081540200202DE9F0415D
:1043E000094D90460E466A681C4607461946904796
:1043F000306020B120686A68384400219047C8F8CE
:104400000000BDE8F0810000540200202DE9F04FCB
:1044100087B08A46DDE910581F46934604460021BE
:1044200005B129805CB12078002809D0BAF1000FCD
:1044300005D0002618F0060F15D0002004E000205B
:1044400007B0BDE8F08F401C215C0A2904D00D297B
:1044500002D00029F7D100E0401C002DF0D04FF031
:10446000FF312980ECE75FEA887001D541F6FF77DC
:10447000894608468DF81410049127E00498CDF879
:10448000189068B34FF0000C05AA06ABCDF80CC02D
:10449000CDF80080CDE9013220443B465A465146D2
:1044A0001DF058F906997A1A314417B20EB288B144
:1044B00004990144049120780A280BD00D2809D0D2
:1044C000605C0A280FD00D280DD00846205C08B18A
:1044D000002FD3DC049848B105B12E800498AFE7D3
:1044E0004FF0010CD0E7481C0490F3E7064A04A9FA
:1044F000204652689047002DF0D0014600225046D9
:1045000012F0D3FD06B2E8E7540200202DE9F04195
:104510001746884606001ED0002F1CD0FBF7C6FEAB
:1045200004463846FBF7C2FE050014D00B4A2C4463
:104530004146926830469047411903E0621BB25CE5
:104540003255641EA142F9D930442A463946BDE8A5
:10455000F04115F015BFBDE8F081000054020020C5
:1045600000230278232902D0012A0DD00FE02AB1BE
:104570000021012A04D0022A04D008E0012101E030
:10458000017004E0017001E0202902D001231846E7
:1045900070470221F6E72DE9F0410E4680460246BB
:1045A0000021334608461DF011FB04460027401C3D
:1045B00015F050FD050008D02F5533464246611CCA
:1045C0001DF004FB2846BDE8F081FEE72DE9F04729
:1045D0001E4614460D468246DDF8209015E000BFC9
:1045E0004FEA540808FB0657394650464A4690475A
:1045F000002808DD44F30000C0EB540407EB060577
:10460000A4F1010401E005DA4446002CE8D120467B
:10461000BDE8F0873846FBE72DE9FC5F9B460CAB15
:104620008A468146DDE9116093E81210DDE90F57F3
:104630005FEA80784FF030031AD45EB15FEAC07849
:1046400008D000F00C0858EA0C0803D0761E01E0F0
:104650000B55641CBC4204D2202CF9D301E00B554D
:10466000641C5FEAC07803D0B44201D2202CF6D398
:104670005FEAC06825D55FEA40580AD44CB1BC4215
:1046800001D0B44205D1641E03D0102D03D1641EA5
:1046900004E0102D02D0022D0AD00EE0850603D4CE
:1046A000202C1ED2782506E0202C1AD2582502E0B4
:1046B000202C16D262250D55641C202C11D20B55CE
:1046C000641C202C0DD2BCF1000F01D02D2306E07C
:1046D000430701D52B2302E0030702D520230B5506
:1046E000641CCDE900BAC846154681468B46AA46E9
:1046F000800714D1274607E02A46DDE900316D1C0A
:104700002020C446E0477F1CB742F5D307E02A4685
:104710006D1C641EDDE900311BF80400C047002C4D
:10472000F5D15FEA897006D409E02A46DDE9003157
:104730006D1C2020C047A5EB0A00B042F5D32846E7
:10474000BDE8FC9F2DE9F04F8FB099468B46DDE91F
:104750001818DDE91C63DDE91A47924686460022F7
:1047600009B923F01003580507AD00D5C9B1B1FB55
:10477000F4F004FB1010C0B20A2801D2303009E076
:104780005FEA836C02D54FF0410C01E04FF0610C01
:1047900060440A38B1FBF4F1A854521C09B1202A34
:1047A000E5D3CDF80880CDE90563CDE90052CDE928
:1047B00003474B46524659467046FFF72DFF0FB050
:1047C000BDE8F08F2DE9FF4F8FB01CACDDE92395DC
:1047D00094E8030820AC94E8C004002450EA0102E5
:1047E00001D125F010056A050DF11C0802D550EA2B
:1047F000010217D032463B46FBF7E2FCD2B20A2A4E
:1048000001D2303206E0AB0601D5412300E061233E
:104810001A440A3A08F80420641C50EA010201D044
:10482000202CE7D3CDE90084CDF808B0CDE905957B
:10483000CDE9036A0FAF97E80F00FFF7EDFE13B065
:10484000BDE8F08F9A4200D288547047704700004C
:104850002DE9FF4F8DB00F460546002606E02528BE
:104860000BD0DDE90F1290476D1C761C28780028CC
:10487000F5D111B03046BDE8F08F0024A246A14624
:104880000122EC4900E0044315F8013F203B02FA05
:1048900003F00842F7D128782A2810D06FF02F02B1
:1048A0002878A0F13001092914D80AEB8A0102EB1B
:1048B000410144F0020400EB010A6D1CF0E701CF56
:1048C0005FEA000A03D544F40054CAF1000A44F038
:1048D00002046D1C28782E2817D115F8010F44F01A
:1048E00004042A280ED06FF02F022878A0F130019E
:1048F00009290AD809EB890102EB410100EB010902
:104900006D1CF2E757F8049B6D1C28786C280FD0BB
:1049100006DC4C2817D068280DD06A2814D104E092
:10492000742810D07A280FD10DE044F400140AE066
:1049300044F4801401E044F440146978814202D1C7
:1049400004F580146D1C6D1C2A786E2A1FD00CDCB7
:10495000632A31D004DC002A8BD0582A11D1A3E07D
:10496000642A68D0692A0CD165E0732A2ED004DC51
:104970006F2A73D0702A04D19BE0752A6FD0782AF1
:104980006ED01046DDE90F129047761C50E1C4F35B
:104990000250022806D0032809D0042801CF09D0EC
:1049A000066045E101CFF117C0E9006140E101CFA8
:1049B00006803DE106703BE117F8040B8DF800001E
:1049C00000208DF80100EB46012003E057F804BBFE
:1049D0004FF0FF3061074FF0000102D40DE008F105
:1049E0000101884649450FDA8045F8DB1BF80810BD
:1049F0000029F4D108E008F1010188468142FADB80
:104A00001BF808100029F6D1DDE90F23AAEB0800F6
:104A10008146214600F036F9304400EB080604E0F8
:104A2000DDE90F121BF8010B9047B8F10108F7D22E
:104A300021464846F7E00A21C4F302534FF0000B29
:104A40000891022B04D001CFC117032B09D00AE033
:104A5000FF1D27F00707F7E8020108E032E01FE03A
:104A600020E000B2C117042B01D140B2C117031ED0
:104A700071F1000307DA4FF0000CD0EB0C006CEB87
:104A800001012D2302E0230504D52B238DF82430CA
:104A9000012303E0E30701D02023F7E7984658E01D
:104AA0000A2110E010210EE010204FF0000B0890BA
:104AB0000CE010214FF0000B44F004044FF0080903
:104AC000089103E008214FF0000B0891C4F3025352
:104AD000022B04D001CF0021032B06D006E0FF1DDE
:104AE00027F00707F7E8020103E080B2042B00D1AA
:104AF000C0B24FF0000823072BD5702A07D0DDF88D
:104B000020C08CF0100C5CEA0B0C05D00EE04023AA
:104B10008DF82430012308E050EA010306D0302349
:104B20008DF824308DF8252002239846DDF820C02A
:104B30008CF0080C5CEA0B0C0BD150EA010301D19C
:104B4000630706D530238DF824304FF00108A9F112
:104B50000109582A04D038A20B9208AA0A920BE045
:104B60003AA2F9E75B46089AFBF72AFB0B9B9B5C92
:104B70000A9A521E0A92137050EA0102F2D10A9860
:104B8000ADEB000000F1200B600702D524F4803467
:104B900001E04FF00109D94502DDA9EB0B0000E06F
:104BA000002000EB0B0141440890AAEB010AE0034E
:104BB00006D4DDE90F232146504600F063F8064491
:104BC0004FF0000908E009A911F80900DDE90F120A
:104BD000904709F10109761CC145F4DBE0030CD5CF
:104BE000DDE90F232146504600F04CF8064404E06E
:104BF000DDE90F1230209047761C0899481E089076
:104C00000029F5DC08E00A980A990078491C0A9105
:104C1000DDE90F129047761CBBF10001ABF1010BEF
:104C2000F1DC21465046DDE90F2300F019F8064477
:104C30006D1C1BE60928010030313233343536371C
:104C400038396162636465660000000030313233D8
:104C50003435363738394142434445460000000078
:104C60002DE9F041044600251E461746880404D469
:104C700005E039462020B0476D1C641EF9D5284652
:104C8000BDE8F0812DE9F041044600251E4690461E
:104C9000C80301D5302700E02027880404D505E0AB
:104CA00041463846B0476D1C641EF9D52846BDE81C
:104CB000F08100002DE9FF4F89B005460A980024D5
:104CC0009246002800D1FE4D8FE1252804D02246CF
:104CD000641C53460A990BE2491C4FF00008084631
:104CE0000C9101782B2919D004DC202919D0232913
:104CF00004D119E02D290ED0302909D00026C8B2E0
:104D0000FEF756F8B0B10CA8FEF73BF806461FE0D8
:104D100048F001010AE048F0020107E048F0040110
:104D200004E048F0080101E048F01001401C88460A
:104D30000C90D6E70C9908782A2809D1169840C813
:104D40001690002E02DA48F002087642491C0C91B7
:104D50000C984FF0000B01782E2919D1401C0C90B3
:104D600048F480680078FEF723F820B10CA8FEF71D
:104D700008F883460CE00C9A10782A2808D1169877
:104D800002C81690002900DC0021521C8B460C92B0
:104D90000C9801786C290AD004DC68290FD06A29A4
:104DA00019D128E0742929D07A2914D126E0401C91
:104DB0000C90017848F480786C291CD00BE0401CE2
:104DC0000C90017848F08008682904D148F040012F
:104DD000401C88460C9002460078692822D015DCD9
:104DE00062281FD00DDC252871D050281AD05828F1
:104DF0007FF46DAF16E048F40071E9E748F4807184
:104E0000E6E7632878D06428F2D10BE0732874D0E9
:104E100004DC6F2806D07028EAD103E0752801D0A1
:104E20007828E5D178280DD058280BD070280BD0E1
:104E3000502809D06F2816D0622816D00A2128F0F1
:104E4000100016E0102107E05078102148F488780F
:104E5000562804D1521C0C921078582807D010788C
:104E6000502804D006E0082109E0022107E048F0BC
:104E7000200080461078692803D0642801D028F0EB
:104E80000C085FEA485001D528F00108107869281D
:104E90001ED064281CD0562864D05FEA885072D592
:104EA000169804ABC01D002283E806080292CDE9E3
:104EB000076820F007005346F0E80212CDE900121F
:104EC0001690224628460A99FFF77CFC89E00AE101
:104ED0005FEA885024D5169804AFC01D20F0070360
:104EE000F3E802021693002387E80A08CDE9076871
:104EF000002A03DA012102E080E0A6E0002100237D
:104F0000029119461B1A914101DA114603E0002172
:104F1000404261EB020153462246CDE90001D1E750
:104F20005FEAC85004D5169804C80FE0524215E055
:104F30005FEA486003D5169810F8042B06E05FEA94
:104F40000860F0D5169830F8042B12B21690CDE90F
:104F5000021BCDE90468D00F002AE7DDCDE900206F
:104F600053461EE01698AAEB040202C81690486841
:104F7000006800900A980B6801192846FFF79AFE0E
:104F800004442FE0FFE75FEAC8500CD5CDE9021BCF
:104F9000CDE9046816980021534604C8CDE90021E4
:104FA0001690224619E05FEA486003D5169810F87B
:104FB000042B08E05FEA0860169803D530F8042B4C
:104FC00092B200E004C816900020CDE90020CDE99F
:104FD000021BCDE904685346224628460A99FFF78A
:104FE000B1FB04460C98401C0C900C9908780028E2
:104FF0007FF46BAE54457DD222467DE001275FEA07
:10500000887006D509E02246641C534620200A9980
:10501000A84738467F1CB042F5D316992246641C37
:1050200011F8040B169153460A99A8475FEA887055
:1050300006D4D7E72246641C534620200A99A84785
:1050400038467F1CB042F5D3CCE7169850F8049B45
:1050500016904B46BBF1000001D0014601E04FF035
:10506000FF31484600E0401C02780AB1491EFAD2DE
:10507000C71A5FEA485003D558465F4500D3074634
:105080005FEA887006D512E02246641C5346202051
:105090000A99A84738467F1CB042F5D307E000BF05
:1050A000224609F10109641C53460A99A84799F858
:1050B000000040B15FEA4851F2D5BBF1010B01E0BD
:1050C0004D480008ECD25FEA887006D48AE7224691
:1050D000641C534620200A99A84738467F1CB042DA
:1050E000F5D37FE706E02246641C534625200A9943
:1050F000A84777E7AAF10102534600200A99A8477A
:105100000DB02046BDE8F08F10B502004FF0000052
:105110000CD04B1E194200D0FEE70A44521E9A439F
:10512000B2F5803F02D20C2A01D9104610BD0C20E6
:1051300010BD08444A1E401E9043114200D0FEE7B5
:10514000704700002DE9F0410F460121002504467B
:1051500041862E460BE01B49FBF7AFF810B16D1CE2
:10516000ADB202E0608E401C6086761CB6B257F885
:10517000260010B101780029EDD1208EA8421ED062
:10518000A06A002610B114F0EFFFA662E06A10B129
:1051900014F0EAFFE662E80014F05CFFA06238B1A8
:1051A000680014F057FFE06218B1A16A11B102E083
:1051B000FEE7FEE70025690015F020F92586BDE829
:1051C000F0810000142801082DE9F84F8146407A4B
:1051D0000F4600F00700022819D01046804697427B
:1051E00000DD3A46164603202A4C2B4A00EB4600C7
:1051F00020F00305A06811681035411A636805EBBB
:10520000010C9C4505D2416821F0004124E008468C
:10521000E4E79D4219D892464FF0FF3B4819616878
:10522000884210D9002269461C48CDF800B00BF026
:1052300041FE002269461A480BF03CFEA168DAF8EC
:105240000000091AEAE7A068DDE7284614F002FF2B
:10525000C0B1416841F0004188EA6702416089EAD3
:1052600002010160416801F04041491C31F0804178
:1052700041608681A0F80E8005D500F110018160A3
:10528000BDE8F88FFEE7A16801F1100229448260B1
:10529000A160F5E7D000002030020020C9DF00083F
:1052A000150F010870B586B000228DF808208DF822
:1052B0000C208DF81020444C90F83C20142302F070
:1052C0000302A5784FF4B476012A23D0022A5FD0D6
:1052D000AA4211D010F8265F05EB051505EB450530
:1052E000B5FBF3F52570407800EB001000EB4000B3
:1052F000B0FBF3F06070A27004AA03A8CDE900022D
:1053000001EB41004FF6FF7101EA400002AB627809
:1053100021781AE0AA4210D0858C05EB45056D0274
:10532000B5FBF6F5A58090F8270000EB001000EB28
:105330004000B0FBF3F06070A27004AA03A8CDE9AE
:105340000002C9B202AB62783CE008F04FFB9DF866
:1053500010209DF80C10D308BDF800209DF808001F
:1053600063F30402ADF800208A08BDF8001062F370
:105370004A11ADF80010C108BDF8000061F3CF205C
:10538000ADF8000080B20090BDF8000006B070BD1E
:10539000AA4210D0858C05EB45056D02B5FBF6F5EC
:1053A000A58090F8260000EB001000EB4000B0FB59
:1053B000F3F02070A27004AA03A8CDE90002CAB2DB
:1053C000217802ABA088C0E78001002010B5084C0E
:1053D000012020700748FEF75CFD0028A06803D07C
:1053E000BDE810401CF058B8BDE810401CF048B8AB
:1053F00014020020DC38002010B5044690F83E006E
:10540000626B810707D4A18F39B1A1F57F43FF3BC0
:1054100015D0491EA187A18F89B90AB181070ED580
:1054200021461348FEF79FFDFFF7D0FFE16809B161
:10543000204688472046BDE8104014F095BEA16B79
:105440004942E162002A11D0810702D4216B49420E
:10545000E1624110491C61F3410084F83E00616A39
:10546000E069E1616062A06AA262606310BD000051
:10547000DC38002070B5304D68681BF0A9FE064688
:10548000687880F00100687047E00020287094F888
:105490003E006978C0F380028A4242D061F3820004
:1054A00084F83E00E16A8A19030719D4002917DC41
:1054B000002A15DBC00709D1216939B12046884788
:1054C000E1690144E161616A08446062A16809B16F
:1054D0002046884794F83E0040F0080084F83E00DB
:1054E000E06A8019E06216D4A16A884200DDE162B8
:1054F000A169204688470146206A884204D021627B
:1055000062680AB120689047D4E90A01814202DB4F
:105510002046FFF771FF287818B10848FEF7B9FC5C
:1055200003E021460548FEF7C6FC0400ADD11BF0A0
:1055300055FE686070BD000014020020DC380020B9
:1055400070B5044640680D4608B1FFF7F9FF2268C0
:10555000002A04D029462046BDE87040104770BD9F
:1055600089B20CF0CEBB89B20CF007BC10B5044672
:10557000406882080AD0496821F00301091D0844E7
:105580006060204600F042F8204610BDFEE740680B
:10559000103120F00300884201D301207047002021
:1055A00070472DE9FC47054648680C4620F003008B
:1055B00001AA69461CF00CFEDDE9007005EBC7117D
:1055C00001EB80098046D9F83C0060B164B1C4E9C0
:1055D000020504F10806C46030460421FFF7A9FD66
:1055E000864202D0FEE7FEE7FEE7C9F83C40012014
:1055F000296900FA07F21143296105EB870100FAD6
:1056000008F04A6902434A61BDE8FC8710B50446C8
:1056100000F087F8046010BD2DE9FC4706464FF006
:1056200000000D0000900746019042D00C46E9466C
:105630000DF10408802907D3084620F09EFB411F86
:1056400001208840401E04444246494620461CF042
:10565000BFFD009C0A2C2CDA06EB8400019A4069FD
:105660004FF0FF3101FA02F210400CD1641C306996
:10567000A14008401DD020F078FB0446009006EBC6
:105680008000406978B120F070FB034606EBC4113E
:10569000019001EB8000C76B5FB1786820F00300D8
:1056A000A84201D2FEE7FEE739463046009A1DF0D7
:1056B000DBFB3846BDE8FC8710B50446FFF7A6FFC4
:1056C000416841F002014160606840F001006060A3
:1056D00010BD10B5044600F024F8416821F0020125
:1056E0004160606820F00100606010BD70B5064642
:1056F0000D46084600F015F8040010D02079C007C8
:105700000BD0686880080BD02146304600F03CF88A
:1057100021462846FFF72AFF0546284670BDFEE7CA
:10572000FEE7426800F1080122F00300001F084470
:10573000910800D1FEE7704770B506460C004FF0A7
:1057400000001ED0F2B120791546C0071BD01146CB
:105750002046FFF71CFF78B12946204600F025F8C7
:1057600005462046FFF752FF6868294640F00200D0
:1057700068603046FFF715FF2046FFF7AAFF04F1E7
:10578000080070BDFEE7FEE77CB5054648680C469C
:1057900020F0030001AA69461CF01AFDDDE9002390
:1057A000214628461DF060FB7CBD2DE9F0410D46E9
:1057B000044600F10801281F0E18606806F108076A
:1057C00020F00300401BA0F1040838460421FFF735
:1057D000B0FC874200D0FEE7606820F0030108EBD0
:1057E0000500001D814200D0FEE7307900F0030083
:1057F00040EA0800706020F003000C2800D2FEE7A9
:10580000207900F00300284360603046FFF754FF22
:105810003046BDE8F08138B5044612F0F9FF054680
:1058200013F02FF80028204605D0218FE18617F0CD
:10583000E5FD012038BD11F01DF9002820461ED0DD
:1058400010F0EDFF218FE08E81420CD02087E08E9A
:1058500000906A461C21204611F04CFB0128E9D13A
:10586000204617F0CBFD284613F017F80428E0D1A6
:10587000204616F0B3F9002111F0D9FFD9E711F055
:1058800055F9D6E710B511F0ECFA072806D1FBF769
:10589000B1F9BDE8104002A0FDF744BA10BD000008
:1058A000726573746172740A0000000008B54028C4
:1058B00031D00EDC082828D006DC01281AD00228B6
:1058C0001AD004281CD11EE0102820D0202817D17F
:1058D0001FE0B0F5007F24D005DC80281DD0B0F596
:1058E000807F0DD11BE0B0F5806F1CD0B0F5006F4C
:1058F00006D11AE00E4800E00E480DF049FF009076
:10590000BDF8000008BD0C48F7E70C48F5E70C4867
:10591000F3E70C48F1E70C48EFE70C48EDE70C48DB
:10592000EBE70C48E9E70C48E7E70C48E5E700003F
:10593000BABABA00FEFFE600EBFFCC00C9FFD70001
:10594000C9FFEC00CAEDFF00CAD5FF00FFE0C000B0
:10595000FFC3C100FFBDE6002FFFDB00FFF46900BD
:1059600070B511F0C3FA054616F07EF904462846D4
:105970000CF0FAFF01462046BDE8704001221AF003
:1059800053BF00002DE9F04F0D4687B004460021BB
:1059900016F059F860B32946204600F061FA29460E
:1059A000204600F06FF80021204616F083FF059096
:1059B0000021204617F050F804900021204616F0F0
:1059C00037FE012800D0002080460021204617F035
:1059D000D4F907460021204616F0AFFE42F2D179F5
:1059E00006464F450BD1608C400508D4012707E0DF
:1059F00007B02846BDE8F04F1C2114F0FFBC00277B
:105A0000204616F09EF8DFF878A083462046002155
:105A1000BAF8022017F090F8D5F810C0AB682968E2
:105A2000CDF800C0CDF80C80CDE90131C2B23946C5
:105A30005846059B09F0EAFE28834E4504D1608C48
:105A4000800501D4012600E00026204616F05FF80C
:105A5000074620460021BAF8062017F06DF8C2B2BA
:105A6000686900246B68E9688DE81B003146384698
:105A7000049B09F0CBFE688307B0BDE8F08F0000FF
:105A8000F40000202DE9F34F81B00C46019809F095
:105A90000FF90646019816F054F88246304600F099
:105AA00025FF2061400014F001FB206020694000C8
:105AB00014F0FCFA002541F69A79A0603AE036F934
:105AC0001510DFF82081494533D10027DFF818B1E0
:105AD0001FE03946019815F0B6FF5946009017F0BF
